{
  "contractName": "CarTrade",
  "abi": [
    {
      "inputs": [
        {
          "internalType": "string",
          "name": "_name",
          "type": "string"
        },
        {
          "internalType": "string",
          "name": "_symbol",
          "type": "string"
        },
        {
          "internalType": "uint256",
          "name": "_depr_mileage",
          "type": "uint256"
        },
        {
          "internalType": "uint256",
          "name": "_depr_engine",
          "type": "uint256"
        },
        {
          "internalType": "uint256",
          "name": "_depr_fuel",
          "type": "uint256"
        }
      ],
      "stateMutability": "nonpayable",
      "type": "constructor"
    },
    {
      "anonymous": false,
      "inputs": [
        {
          "indexed": true,
          "internalType": "address",
          "name": "owner",
          "type": "address"
        },
        {
          "indexed": true,
          "internalType": "address",
          "name": "approved",
          "type": "address"
        },
        {
          "indexed": true,
          "internalType": "uint256",
          "name": "tokenId",
          "type": "uint256"
        }
      ],
      "name": "Approval",
      "type": "event"
    },
    {
      "anonymous": false,
      "inputs": [
        {
          "indexed": true,
          "internalType": "address",
          "name": "owner",
          "type": "address"
        },
        {
          "indexed": true,
          "internalType": "address",
          "name": "operator",
          "type": "address"
        },
        {
          "indexed": false,
          "internalType": "bool",
          "name": "approved",
          "type": "bool"
        }
      ],
      "name": "ApprovalForAll",
      "type": "event"
    },
    {
      "anonymous": false,
      "inputs": [
        {
          "indexed": true,
          "internalType": "address",
          "name": "from",
          "type": "address"
        },
        {
          "indexed": true,
          "internalType": "address",
          "name": "to",
          "type": "address"
        },
        {
          "indexed": true,
          "internalType": "uint256",
          "name": "tokenId",
          "type": "uint256"
        }
      ],
      "name": "Transfer",
      "type": "event"
    },
    {
      "anonymous": false,
      "inputs": [
        {
          "indexed": false,
          "internalType": "address",
          "name": "from",
          "type": "address"
        },
        {
          "indexed": false,
          "internalType": "address",
          "name": "to",
          "type": "address"
        },
        {
          "indexed": false,
          "internalType": "uint256",
          "name": "carId",
          "type": "uint256"
        }
      ],
      "name": "buyEvent",
      "type": "event"
    },
    {
      "anonymous": false,
      "inputs": [
        {
          "indexed": false,
          "internalType": "address",
          "name": "owner",
          "type": "address"
        },
        {
          "indexed": false,
          "internalType": "uint256",
          "name": "carId",
          "type": "uint256"
        }
      ],
      "name": "makeCarEvent",
      "type": "event"
    },
    {
      "anonymous": false,
      "inputs": [
        {
          "indexed": false,
          "internalType": "address",
          "name": "owner",
          "type": "address"
        },
        {
          "indexed": false,
          "internalType": "uint256",
          "name": "carId",
          "type": "uint256"
        }
      ],
      "name": "postCarEvent",
      "type": "event"
    },
    {
      "anonymous": false,
      "inputs": [
        {
          "indexed": false,
          "internalType": "address",
          "name": "manufacturer",
          "type": "address"
        }
      ],
      "name": "registerEvent",
      "type": "event"
    },
    {
      "inputs": [
        {
          "internalType": "address",
          "name": "to",
          "type": "address"
        },
        {
          "internalType": "uint256",
          "name": "tokenId",
          "type": "uint256"
        }
      ],
      "name": "approve",
      "outputs": [],
      "stateMutability": "nonpayable",
      "type": "function"
    },
    {
      "inputs": [
        {
          "internalType": "address",
          "name": "owner",
          "type": "address"
        }
      ],
      "name": "balanceOf",
      "outputs": [
        {
          "internalType": "uint256",
          "name": "",
          "type": "uint256"
        }
      ],
      "stateMutability": "view",
      "type": "function",
      "constant": true
    },
    {
      "inputs": [
        {
          "internalType": "uint256",
          "name": "",
          "type": "uint256"
        }
      ],
      "name": "cars",
      "outputs": [
        {
          "internalType": "uint256",
          "name": "id",
          "type": "uint256"
        },
        {
          "internalType": "bool",
          "name": "onSale",
          "type": "bool"
        },
        {
          "internalType": "uint256",
          "name": "mileage",
          "type": "uint256"
        },
        {
          "internalType": "uint256",
          "name": "engine",
          "type": "uint256"
        },
        {
          "internalType": "uint256",
          "name": "fuel",
          "type": "uint256"
        },
        {
          "internalType": "uint256",
          "name": "price",
          "type": "uint256"
        }
      ],
      "stateMutability": "view",
      "type": "function",
      "constant": true
    },
    {
      "inputs": [
        {
          "internalType": "uint256",
          "name": "tokenId",
          "type": "uint256"
        }
      ],
      "name": "getApproved",
      "outputs": [
        {
          "internalType": "address",
          "name": "",
          "type": "address"
        }
      ],
      "stateMutability": "view",
      "type": "function",
      "constant": true
    },
    {
      "inputs": [
        {
          "internalType": "address",
          "name": "owner",
          "type": "address"
        },
        {
          "internalType": "address",
          "name": "operator",
          "type": "address"
        }
      ],
      "name": "isApprovedForAll",
      "outputs": [
        {
          "internalType": "bool",
          "name": "",
          "type": "bool"
        }
      ],
      "stateMutability": "view",
      "type": "function",
      "constant": true
    },
    {
      "inputs": [],
      "name": "name",
      "outputs": [
        {
          "internalType": "string",
          "name": "",
          "type": "string"
        }
      ],
      "stateMutability": "view",
      "type": "function",
      "constant": true
    },
    {
      "inputs": [
        {
          "internalType": "uint256",
          "name": "",
          "type": "uint256"
        }
      ],
      "name": "nft",
      "outputs": [
        {
          "internalType": "bool",
          "name": "",
          "type": "bool"
        }
      ],
      "stateMutability": "view",
      "type": "function",
      "constant": true
    },
    {
      "inputs": [
        {
          "internalType": "uint256",
          "name": "tokenId",
          "type": "uint256"
        }
      ],
      "name": "ownerOf",
      "outputs": [
        {
          "internalType": "address",
          "name": "",
          "type": "address"
        }
      ],
      "stateMutability": "view",
      "type": "function",
      "constant": true
    },
    {
      "inputs": [
        {
          "internalType": "address",
          "name": "from",
          "type": "address"
        },
        {
          "internalType": "address",
          "name": "to",
          "type": "address"
        },
        {
          "internalType": "uint256",
          "name": "tokenId",
          "type": "uint256"
        }
      ],
      "name": "safeTransferFrom",
      "outputs": [],
      "stateMutability": "nonpayable",
      "type": "function"
    },
    {
      "inputs": [
        {
          "internalType": "address",
          "name": "from",
          "type": "address"
        },
        {
          "internalType": "address",
          "name": "to",
          "type": "address"
        },
        {
          "internalType": "uint256",
          "name": "tokenId",
          "type": "uint256"
        },
        {
          "internalType": "bytes",
          "name": "data",
          "type": "bytes"
        }
      ],
      "name": "safeTransferFrom",
      "outputs": [],
      "stateMutability": "nonpayable",
      "type": "function"
    },
    {
      "inputs": [
        {
          "internalType": "address",
          "name": "operator",
          "type": "address"
        },
        {
          "internalType": "bool",
          "name": "approved",
          "type": "bool"
        }
      ],
      "name": "setApprovalForAll",
      "outputs": [],
      "stateMutability": "nonpayable",
      "type": "function"
    },
    {
      "inputs": [
        {
          "internalType": "bytes4",
          "name": "interfaceId",
          "type": "bytes4"
        }
      ],
      "name": "supportsInterface",
      "outputs": [
        {
          "internalType": "bool",
          "name": "",
          "type": "bool"
        }
      ],
      "stateMutability": "view",
      "type": "function",
      "constant": true
    },
    {
      "inputs": [],
      "name": "symbol",
      "outputs": [
        {
          "internalType": "string",
          "name": "",
          "type": "string"
        }
      ],
      "stateMutability": "view",
      "type": "function",
      "constant": true
    },
    {
      "inputs": [
        {
          "internalType": "uint256",
          "name": "tokenId",
          "type": "uint256"
        }
      ],
      "name": "tokenURI",
      "outputs": [
        {
          "internalType": "string",
          "name": "",
          "type": "string"
        }
      ],
      "stateMutability": "view",
      "type": "function",
      "constant": true
    },
    {
      "inputs": [
        {
          "internalType": "address",
          "name": "from",
          "type": "address"
        },
        {
          "internalType": "address",
          "name": "to",
          "type": "address"
        },
        {
          "internalType": "uint256",
          "name": "tokenId",
          "type": "uint256"
        }
      ],
      "name": "transferFrom",
      "outputs": [],
      "stateMutability": "nonpayable",
      "type": "function"
    },
    {
      "inputs": [],
      "name": "getName",
      "outputs": [
        {
          "internalType": "string",
          "name": "",
          "type": "string"
        }
      ],
      "stateMutability": "view",
      "type": "function",
      "constant": true
    },
    {
      "inputs": [],
      "name": "getListedCars",
      "outputs": [
        {
          "components": [
            {
              "internalType": "uint256",
              "name": "id",
              "type": "uint256"
            },
            {
              "internalType": "bool",
              "name": "onSale",
              "type": "bool"
            },
            {
              "internalType": "uint256",
              "name": "mileage",
              "type": "uint256"
            },
            {
              "internalType": "uint256",
              "name": "engine",
              "type": "uint256"
            },
            {
              "internalType": "uint256",
              "name": "fuel",
              "type": "uint256"
            },
            {
              "internalType": "uint256",
              "name": "price",
              "type": "uint256"
            }
          ],
          "internalType": "struct CarTrade.Car[]",
          "name": "",
          "type": "tuple[]"
        }
      ],
      "stateMutability": "view",
      "type": "function",
      "constant": true
    },
    {
      "inputs": [],
      "name": "getMyCars",
      "outputs": [
        {
          "components": [
            {
              "internalType": "uint256",
              "name": "id",
              "type": "uint256"
            },
            {
              "internalType": "bool",
              "name": "onSale",
              "type": "bool"
            },
            {
              "internalType": "uint256",
              "name": "mileage",
              "type": "uint256"
            },
            {
              "internalType": "uint256",
              "name": "engine",
              "type": "uint256"
            },
            {
              "internalType": "uint256",
              "name": "fuel",
              "type": "uint256"
            },
            {
              "internalType": "uint256",
              "name": "price",
              "type": "uint256"
            }
          ],
          "internalType": "struct CarTrade.Car[]",
          "name": "",
          "type": "tuple[]"
        }
      ],
      "stateMutability": "view",
      "type": "function",
      "constant": true
    },
    {
      "inputs": [
        {
          "internalType": "uint256",
          "name": "mileage",
          "type": "uint256"
        },
        {
          "internalType": "uint256",
          "name": "engine",
          "type": "uint256"
        },
        {
          "internalType": "uint256",
          "name": "fuel",
          "type": "uint256"
        }
      ],
      "name": "get_price",
      "outputs": [
        {
          "internalType": "uint256",
          "name": "",
          "type": "uint256"
        }
      ],
      "stateMutability": "view",
      "type": "function",
      "constant": true
    },
    {
      "inputs": [],
      "name": "register_as_manufacturer",
      "outputs": [],
      "stateMutability": "nonpayable",
      "type": "function"
    },
    {
      "inputs": [
        {
          "internalType": "uint256",
          "name": "mileage",
          "type": "uint256"
        },
        {
          "internalType": "uint256",
          "name": "engine",
          "type": "uint256"
        },
        {
          "internalType": "uint256",
          "name": "fuel",
          "type": "uint256"
        }
      ],
      "name": "makeCar",
      "outputs": [],
      "stateMutability": "payable",
      "type": "function",
      "payable": true
    },
    {
      "inputs": [
        {
          "internalType": "uint256",
          "name": "id",
          "type": "uint256"
        }
      ],
      "name": "buy",
      "outputs": [],
      "stateMutability": "payable",
      "type": "function",
      "payable": true
    },
    {
      "inputs": [
        {
          "internalType": "uint256",
          "name": "id",
          "type": "uint256"
        },
        {
          "internalType": "uint256",
          "name": "price",
          "type": "uint256"
        }
      ],
      "name": "postCar",
      "outputs": [],
      "stateMutability": "nonpayable",
      "type": "function"
    }
  ],
  "bytecode": "0x60806040526000600a553480156200001657600080fd5b50604051620043563803806200435683398181016040528101906200003c9190620002a3565b848481600090816200004f9190620005aa565b508060019081620000619190620005aa565b5050506040518060400160405280601281526020017f204120436172204d61726b6574706c616365000000000000000000000000000081525060069081620000aa9190620005aa565b50826007819055508160088190555080600981905550505050505062000691565b6000604051905090565b600080fd5b600080fd5b600080fd5b600080fd5b6000601f19601f8301169050919050565b7f4e487b7100000000000000000000000000000000000000000000000000000000600052604160045260246000fd5b6200013482620000e9565b810181811067ffffffffffffffff82111715620001565762000155620000fa565b5b80604052505050565b60006200016b620000cb565b905062000179828262000129565b919050565b600067ffffffffffffffff8211156200019c576200019b620000fa565b5b620001a782620000e9565b9050602081019050919050565b60005b83811015620001d4578082015181840152602081019050620001b7565b83811115620001e4576000848401525b50505050565b600062000201620001fb846200017e565b6200015f565b90508281526020810184848401111562000220576200021f620000e4565b5b6200022d848285620001b4565b509392505050565b600082601f8301126200024d576200024c620000df565b5b81516200025f848260208601620001ea565b91505092915050565b6000819050919050565b6200027d8162000268565b81146200028957600080fd5b50565b6000815190506200029d8162000272565b92915050565b600080600080600060a08688031215620002c257620002c1620000d5565b5b600086015167ffffffffffffffff811115620002e357620002e2620000da565b5b620002f18882890162000235565b955050602086015167ffffffffffffffff811115620003155762000314620000da565b5b620003238882890162000235565b945050604062000336888289016200028c565b935050606062000349888289016200028c565b92505060806200035c888289016200028c565b9150509295509295909350565b600081519050919050565b7f4e487b7100000000000000000000000000000000000000000000000000000000600052602260045260246000fd5b60006002820490506001821680620003bc57607f821691505b602082108103620003d257620003d162000374565b5b50919050565b60008190508160005260206000209050919050565b60006020601f8301049050919050565b600082821b905092915050565b6000600883026200043c7fffffffffffffffffffffffffffffffffffffffffffffffffffffffffffffffff82620003fd565b620004488683620003fd565b95508019841693508086168417925050509392505050565b6000819050919050565b60006200048b620004856200047f8462000268565b62000460565b62000268565b9050919050565b6000819050919050565b620004a7836200046a565b620004bf620004b68262000492565b8484546200040a565b825550505050565b600090565b620004d6620004c7565b620004e38184846200049c565b505050565b5b818110156200050b57620004ff600082620004cc565b600181019050620004e9565b5050565b601f8211156200055a576200052481620003d8565b6200052f84620003ed565b810160208510156200053f578190505b620005576200054e85620003ed565b830182620004e8565b50505b505050565b600082821c905092915050565b60006200057f600019846008026200055f565b1980831691505092915050565b60006200059a83836200056c565b9150826002028217905092915050565b620005b58262000369565b67ffffffffffffffff811115620005d157620005d0620000fa565b5b620005dd8254620003a3565b620005ea8282856200050f565b600060209050601f8311600181146200062257600084156200060d578287015190505b6200061985826200058c565b86555062000689565b601f1984166200063286620003d8565b60005b828110156200065c5784890151825560018201915060208501945060208101905062000635565b868310156200067c578489015162000678601f8916826200056c565b8355505b6001600288020188555050505b505050505050565b613cb580620006a16000396000f3fe6080604052600436106101405760003560e01c806370a08231116100b6578063b665f34b1161006f578063b665f34b1461044d578063b88d4fde1461048a578063c87b56dd146104b3578063d96a094a146104f0578063e985e9c51461050c578063f7746e361461054957610140565b806370a082311461033f5780638b5bc0581461037c57806395d89b41146103935780639d0214cb146103be578063a22cb465146103fb578063a9dcae8a1461042457610140565b806317d7de7c1161010857806317d7de7c1461022f57806323b872dd1461025a578063341fa05d1461028357806342842e0e146102ae57806353b26437146102d75780636352211e1461030257610140565b806301ffc9a71461014557806306fdde0314610182578063081812fc146101ad578063095ea7b3146101ea57806310bcef2d14610213575b600080fd5b34801561015157600080fd5b5061016c6004803603810190610167919061272d565b61058b565b6040516101799190612775565b60405180910390f35b34801561018e57600080fd5b5061019761066d565b6040516101a49190612829565b60405180910390f35b3480156101b957600080fd5b506101d460048036038101906101cf9190612881565b6106ff565b6040516101e191906128ef565b60405180910390f35b3480156101f657600080fd5b50610211600480360381019061020c9190612936565b610745565b005b61022d60048036038101906102289190612976565b61085c565b005b34801561023b57600080fd5b50610244610aa2565b6040516102519190612829565b60405180910390f35b34801561026657600080fd5b50610281600480360381019061027c91906129c9565b610b34565b005b34801561028f57600080fd5b50610298610b94565b6040516102a59190612b64565b60405180910390f35b3480156102ba57600080fd5b506102d560048036038101906102d091906129c9565b610dea565b005b3480156102e357600080fd5b506102ec610e0a565b6040516102f99190612b64565b60405180910390f35b34801561030e57600080fd5b5061032960048036038101906103249190612881565b611021565b60405161033691906128ef565b60405180910390f35b34801561034b57600080fd5b5061036660048036038101906103619190612b86565b6110d2565b6040516103739190612bc2565b60405180910390f35b34801561038857600080fd5b50610391611189565b005b34801561039f57600080fd5b506103a86112ad565b6040516103b59190612829565b60405180910390f35b3480156103ca57600080fd5b506103e560048036038101906103e09190612881565b61133f565b6040516103f29190612775565b60405180910390f35b34801561040757600080fd5b50610422600480360381019061041d9190612c09565b61135f565b005b34801561043057600080fd5b5061044b60048036038101906104469190612c49565b611375565b005b34801561045957600080fd5b50610474600480360381019061046f9190612976565b61152b565b6040516104819190612bc2565b60405180910390f35b34801561049657600080fd5b506104b160048036038101906104ac9190612dbe565b611552565b005b3480156104bf57600080fd5b506104da60048036038101906104d59190612881565b6115b4565b6040516104e79190612829565b60405180910390f35b61050a60048036038101906105059190612881565b61161c565b005b34801561051857600080fd5b50610533600480360381019061052e9190612e41565b6118cd565b6040516105409190612775565b60405180910390f35b34801561055557600080fd5b50610570600480360381019061056b9190612881565b611961565b60405161058296959493929190612e81565b60405180910390f35b60007f80ac58cd000000000000000000000000000000000000000000000000000000007bffffffffffffffffffffffffffffffffffffffffffffffffffffffff1916827bffffffffffffffffffffffffffffffffffffffffffffffffffffffff1916148061065657507f5b5e139f000000000000000000000000000000000000000000000000000000007bffffffffffffffffffffffffffffffffffffffffffffffffffffffff1916827bffffffffffffffffffffffffffffffffffffffffffffffffffffffff1916145b806106665750610665826119aa565b5b9050919050565b60606000805461067c90612f11565b80601f01602080910402602001604051908101604052809291908181526020018280546106a890612f11565b80156106f55780601f106106ca576101008083540402835291602001916106f5565b820191906000526020600020905b8154815290600101906020018083116106d857829003601f168201915b5050505050905090565b600061070a82611a14565b6004600083815260200190815260200160002060009054906101000a900473ffffffffffffffffffffffffffffffffffffffff169050919050565b600061075082611021565b90508073ffffffffffffffffffffffffffffffffffffffff168373ffffffffffffffffffffffffffffffffffffffff16036107c0576040517f08c379a00000000000000000000000000000000000000000000000000000000081526004016107b790612fb4565b60405180910390fd5b8073ffffffffffffffffffffffffffffffffffffffff166107df611a5f565b73ffffffffffffffffffffffffffffffffffffffff16148061080e575061080d81610808611a5f565b6118cd565b5b61084d576040517f08c379a000000000000000000000000000000000000000000000000000000000815260040161084490613046565b60405180910390fd5b6108578383611a67565b505050565b60011515600d60003373ffffffffffffffffffffffffffffffffffffffff1673ffffffffffffffffffffffffffffffffffffffff16815260200190815260200160002060009054906101000a900460ff161515146108ef576040517f08c379a00000000000000000000000000000000000000000000000000000000081526004016108e6906130b2565b60405180910390fd5b60006108fc84848461152b565b9050803414610940576040517f08c379a00000000000000000000000000000000000000000000000000000000081526004016109379061311e565b60405180910390fd5b6000841161094d57600080fd5b6000831161095a57600080fd5b6000831161096757600080fd5b60006040518060c00160405280600a600081546109839061316d565b919050819055815260200160001515815260200186815260200185815260200184815260200183815250905080600c6000600a5481526020019081526020016000206000820151816000015560208201518160010160006101000a81548160ff02191690831515021790555060408201518160020155606082015181600301556080820151816004015560a08201518160050155905050610a2633600a54611b20565b6001600b6000600a54815260200190815260200160002060006101000a81548160ff0219169083151502179055507f7caa722834cfdd4656a7df1bc96ab60810f3384da6b7c07f8382041aae3dcdf3610a80600a54611021565b8260000151604051610a939291906131b5565b60405180910390a15050505050565b606060068054610ab190612f11565b80601f0160208091040260200160405190810160405280929190818152602001828054610add90612f11565b8015610b2a5780601f10610aff57610100808354040283529160200191610b2a565b820191906000526020600020905b815481529060010190602001808311610b0d57829003601f168201915b5050505050905090565b610b45610b3f611a5f565b82611cf9565b610b84576040517f08c379a0000000000000000000000000000000000000000000000000000000008152600401610b7b90613250565b60405180910390fd5b610b8f838383611d8e565b505050565b60606000805b600a54811015610c4457600b6000600183610bb59190613270565b815260200190815260200160002060009054906101000a900460ff168015610c1c57503373ffffffffffffffffffffffffffffffffffffffff16610c04600183610bff9190613270565b611021565b73ffffffffffffffffffffffffffffffffffffffff16145b15610c3157600182610c2e9190613270565b91505b8080610c3c9061316d565b915050610b9a565b5060008167ffffffffffffffff811115610c6157610c60612c93565b5b604051908082528060200260200182016040528015610c9a57816020015b610c87612689565b815260200190600190039081610c7f5790505b5090506000805b600a54811015610de057600b6000600183610cbc9190613270565b815260200190815260200160002060009054906101000a900460ff168015610d2357503373ffffffffffffffffffffffffffffffffffffffff16610d0b600183610d069190613270565b611021565b73ffffffffffffffffffffffffffffffffffffffff16145b15610dcd57600c6000600183610d399190613270565b81526020019081526020016000206040518060c0016040529081600082015481526020016001820160009054906101000a900460ff16151515158152602001600282015481526020016003820154815260200160048201548152602001600582015481525050838381518110610db257610db16132c6565b5b6020026020010181905250600182610dca9190613270565b91505b8080610dd89061316d565b915050610ca1565b5081935050505090565b610e0583838360405180602001604052806000815250611552565b505050565b60606000805b600a54811015610e9b57600b600082815260200190815260200160002060009054906101000a900460ff168015610e735750600c6000600183610e539190613270565b815260200190815260200160002060010160009054906101000a900460ff165b15610e8857600182610e859190613270565b91505b8080610e939061316d565b915050610e10565b5060008167ffffffffffffffff811115610eb857610eb7612c93565b5b604051908082528060200260200182016040528015610ef157816020015b610ede612689565b815260200190600190039081610ed65790505b5090506000805b600a5481101561101757600b600082815260200190815260200160002060009054906101000a900460ff168015610f5b5750600c6000600183610f3b9190613270565b815260200190815260200160002060010160009054906101000a900460ff165b1561100457600c6000600183610f719190613270565b81526020019081526020016000206040518060c0016040529081600082015481526020016001820160009054906101000a900460ff16151515158152602001600282015481526020016003820154815260200160048201548152602001600582015481525050838381518110610fea57610fe96132c6565b5b602002602001018190525081806110009061316d565b9250505b808061100f9061316d565b915050610ef8565b5081935050505090565b6000806002600084815260200190815260200160002060009054906101000a900473ffffffffffffffffffffffffffffffffffffffff169050600073ffffffffffffffffffffffffffffffffffffffff168173ffffffffffffffffffffffffffffffffffffffff16036110c9576040517f08c379a00000000000000000000000000000000000000000000000000000000081526004016110c090613341565b60405180910390fd5b80915050919050565b60008073ffffffffffffffffffffffffffffffffffffffff168273ffffffffffffffffffffffffffffffffffffffff1603611142576040517f08c379a0000000000000000000000000000000000000000000000000000000008152600401611139906133d3565b60405180910390fd5b600360008373ffffffffffffffffffffffffffffffffffffffff1673ffffffffffffffffffffffffffffffffffffffff168152602001908152602001600020549050919050565b60001515600d60003373ffffffffffffffffffffffffffffffffffffffff1673ffffffffffffffffffffffffffffffffffffffff16815260200190815260200160002060009054906101000a900460ff1615151461121c576040517f08c379a00000000000000000000000000000000000000000000000000000000081526004016112139061343f565b60405180910390fd5b6001600d60003373ffffffffffffffffffffffffffffffffffffffff1673ffffffffffffffffffffffffffffffffffffffff16815260200190815260200160002060006101000a81548160ff0219169083151502179055507f60d9b769ccb69037368a6e5d5515b08014a71ed00794df5500bdf5683be488d5336040516112a391906128ef565b60405180910390a1565b6060600180546112bc90612f11565b80601f01602080910402602001604051908101604052809291908181526020018280546112e890612f11565b80156113355780601f1061130a57610100808354040283529160200191611335565b820191906000526020600020905b81548152906001019060200180831161131857829003601f168201915b5050505050905090565b600b6020528060005260406000206000915054906101000a900460ff1681565b61137161136a611a5f565b8383611ff4565b5050565b8160011515600b600083815260200190815260200160002060009054906101000a900460ff161515146113dd576040517f08c379a00000000000000000000000000000000000000000000000000000000081526004016113d4906134ab565b60405180910390fd5b6000600c600085815260200190815260200160002090506113fd84611021565b73ffffffffffffffffffffffffffffffffffffffff163373ffffffffffffffffffffffffffffffffffffffff161461146a576040517f08c379a000000000000000000000000000000000000000000000000000000000815260040161146190613517565b60405180910390fd5b600015158160010160009054906101000a900460ff161515146114c2576040517f08c379a00000000000000000000000000000000000000000000000000000000081526004016114b990613583565b60405180910390fd5b60018160010160006101000a81548160ff0219169083151502179055508281600501819055507f954972dadb2cadfa65116950813403ef2ebadbb85717efda3caab2a363a9427b33826000015460405161151d9291906131b5565b60405180910390a150505050565b60008082848661153b9190613270565b6115459190613270565b9050809150509392505050565b61156361155d611a5f565b83611cf9565b6115a2576040517f08c379a000000000000000000000000000000000000000000000000000000000815260040161159990613250565b60405180910390fd5b6115ae84848484612160565b50505050565b60606115bf82611a14565b60006115c96121bc565b905060008151116115e95760405180602001604052806000815250611614565b806115f3846121d3565b6040516020016116049291906135df565b6040516020818303038152906040525b915050919050565b8060011515600b600083815260200190815260200160002060009054906101000a900460ff16151514611684576040517f08c379a000000000000000000000000000000000000000000000000000000000815260040161167b906134ab565b60405180910390fd5b6000600c600084815260200190815260200160002090506116a483611021565b73ffffffffffffffffffffffffffffffffffffffff163373ffffffffffffffffffffffffffffffffffffffff1603611711576040517f08c379a00000000000000000000000000000000000000000000000000000000081526004016117089061364f565b60405180910390fd5b80600501543414611757576040517f08c379a000000000000000000000000000000000000000000000000000000000815260040161174e906136bb565b60405180910390fd5b600115158160010160009054906101000a900460ff161515146117af576040517f08c379a00000000000000000000000000000000000000000000000000000000081526004016117a690613727565b60405180910390fd5b60006117ba84611021565b90508073ffffffffffffffffffffffffffffffffffffffff166108fc349081150290604051600060405180830381858888f19350505050158015611802573d6000803e3d6000fd5b5061181281338460000154611d8e565b60008260010160006101000a81548160ff02191690831515021790555061183c8260000154612333565b60011515600b600086815260200190815260200160002060009054906101000a900460ff161515036118885761187f82600201548360030154846004015461152b565b82600501819055505b7fdc5e8d30783b6abd495b9565cd582570e874840d57b15bb5cddb8fc83fb6e8d7813384600001546040516118bf939291906137a6565b60405180910390a150505050565b6000600560008473ffffffffffffffffffffffffffffffffffffffff1673ffffffffffffffffffffffffffffffffffffffff16815260200190815260200160002060008373ffffffffffffffffffffffffffffffffffffffff1673ffffffffffffffffffffffffffffffffffffffff16815260200190815260200160002060009054906101000a900460ff16905092915050565b600c6020528060005260406000206000915090508060000154908060010160009054906101000a900460ff16908060020154908060030154908060040154908060050154905086565b60007f01ffc9a7000000000000000000000000000000000000000000000000000000007bffffffffffffffffffffffffffffffffffffffffffffffffffffffff1916827bffffffffffffffffffffffffffffffffffffffffffffffffffffffff1916149050919050565b611a1d81612469565b611a5c576040517f08c379a0000000000000000000000000000000000000000000000000000000008152600401611a5390613341565b60405180910390fd5b50565b600033905090565b816004600083815260200190815260200160002060006101000a81548173ffffffffffffffffffffffffffffffffffffffff021916908373ffffffffffffffffffffffffffffffffffffffff160217905550808273ffffffffffffffffffffffffffffffffffffffff16611ada83611021565b73ffffffffffffffffffffffffffffffffffffffff167f8c5be1e5ebec7d5bd14f71427d1e84f3dd0314c0f7b2291e5b200ac8c7c3b92560405160405180910390a45050565b600073ffffffffffffffffffffffffffffffffffffffff168273ffffffffffffffffffffffffffffffffffffffff1603611b8f576040517f08c379a0000000000000000000000000000000000000000000000000000000008152600401611b8690613829565b60405180910390fd5b611b9881612469565b15611bd8576040517f08c379a0000000000000000000000000000000000000000000000000000000008152600401611bcf90613895565b60405180910390fd5b611be4600083836124d5565b6001600360008473ffffffffffffffffffffffffffffffffffffffff1673ffffffffffffffffffffffffffffffffffffffff1681526020019081526020016000206000828254611c349190613270565b92505081905550816002600083815260200190815260200160002060006101000a81548173ffffffffffffffffffffffffffffffffffffffff021916908373ffffffffffffffffffffffffffffffffffffffff160217905550808273ffffffffffffffffffffffffffffffffffffffff16600073ffffffffffffffffffffffffffffffffffffffff167fddf252ad1be2c89b69c2b068fc378daa952ba7f163c4a11628f55a4df523b3ef60405160405180910390a4611cf5600083836124da565b5050565b600080611d0583611021565b90508073ffffffffffffffffffffffffffffffffffffffff168473ffffffffffffffffffffffffffffffffffffffff161480611d475750611d4681856118cd565b5b80611d8557508373ffffffffffffffffffffffffffffffffffffffff16611d6d846106ff565b73ffffffffffffffffffffffffffffffffffffffff16145b91505092915050565b8273ffffffffffffffffffffffffffffffffffffffff16611dae82611021565b73ffffffffffffffffffffffffffffffffffffffff1614611e04576040517f08c379a0000000000000000000000000000000000000000000000000000000008152600401611dfb90613927565b60405180910390fd5b600073ffffffffffffffffffffffffffffffffffffffff168273ffffffffffffffffffffffffffffffffffffffff1603611e73576040517f08c379a0000000000000000000000000000000000000000000000000000000008152600401611e6a906139b9565b60405180910390fd5b611e7e8383836124d5565b611e89600082611a67565b6001600360008573ffffffffffffffffffffffffffffffffffffffff1673ffffffffffffffffffffffffffffffffffffffff1681526020019081526020016000206000828254611ed991906139d9565b925050819055506001600360008473ffffffffffffffffffffffffffffffffffffffff1673ffffffffffffffffffffffffffffffffffffffff1681526020019081526020016000206000828254611f309190613270565b92505081905550816002600083815260200190815260200160002060006101000a81548173ffffffffffffffffffffffffffffffffffffffff021916908373ffffffffffffffffffffffffffffffffffffffff160217905550808273ffffffffffffffffffffffffffffffffffffffff168473ffffffffffffffffffffffffffffffffffffffff167fddf252ad1be2c89b69c2b068fc378daa952ba7f163c4a11628f55a4df523b3ef60405160405180910390a4611fef8383836124da565b505050565b8173ffffffffffffffffffffffffffffffffffffffff168373ffffffffffffffffffffffffffffffffffffffff1603612062576040517f08c379a000000000000000000000000000000000000000000000000000000000815260040161205990613a59565b60405180910390fd5b80600560008573ffffffffffffffffffffffffffffffffffffffff1673ffffffffffffffffffffffffffffffffffffffff16815260200190815260200160002060008473ffffffffffffffffffffffffffffffffffffffff1673ffffffffffffffffffffffffffffffffffffffff16815260200190815260200160002060006101000a81548160ff0219169083151502179055508173ffffffffffffffffffffffffffffffffffffffff168373ffffffffffffffffffffffffffffffffffffffff167f17307eab39ab6107e8899845ad3d59bd9653f200f220920489ca2b5937696c31836040516121539190612775565b60405180910390a3505050565b61216b848484611d8e565b612177848484846124df565b6121b6576040517f08c379a00000000000000000000000000000000000000000000000000000000081526004016121ad90613aeb565b60405180910390fd5b50505050565b606060405180602001604052806000815250905090565b60606000820361221a576040518060400160405280600181526020017f3000000000000000000000000000000000000000000000000000000000000000815250905061232e565b600082905060005b6000821461224c5780806122359061316d565b915050600a826122459190613b3a565b9150612222565b60008167ffffffffffffffff81111561226857612267612c93565b5b6040519080825280601f01601f19166020018201604052801561229a5781602001600182028036833780820191505090505b5090505b60008514612327576001826122b391906139d9565b9150600a856122c29190613b6b565b60306122ce9190613270565b60f81b8183815181106122e4576122e36132c6565b5b60200101907effffffffffffffffffffffffffffffffffffffffffffffffffffffffffffff1916908160001a905350600a856123209190613b3a565b945061229e565b8093505050505b919050565b8060011515600b600083815260200190815260200160002060009054906101000a900460ff1615151461239b576040517f08c379a0000000000000000000000000000000000000000000000000000000008152600401612392906134ab565b60405180910390fd5b6000600c600084815260200190815260200160002090506007548160020160008282546123c891906139d9565b925050819055506008548160030160008282546123e591906139d9565b9250508190555060095481600401600082825461240291906139d9565b925050819055506000816002015411158061242257506000816003015411155b8061243257506000816004015411155b15612464576000600b600085815260200190815260200160002060006101000a81548160ff0219169083151502179055505b505050565b60008073ffffffffffffffffffffffffffffffffffffffff166002600084815260200190815260200160002060009054906101000a900473ffffffffffffffffffffffffffffffffffffffff1673ffffffffffffffffffffffffffffffffffffffff1614159050919050565b505050565b505050565b60006125008473ffffffffffffffffffffffffffffffffffffffff16612666565b15612659578373ffffffffffffffffffffffffffffffffffffffff1663150b7a02612529611a5f565b8786866040518563ffffffff1660e01b815260040161254b9493929190613bf1565b6020604051808303816000875af192505050801561258757506040513d601f19601f820116820180604052508101906125849190613c52565b60015b612609573d80600081146125b7576040519150601f19603f3d011682016040523d82523d6000602084013e6125bc565b606091505b506000815103612601576040517f08c379a00000000000000000000000000000000000000000000000000000000081526004016125f890613aeb565b60405180910390fd5b805181602001fd5b63150b7a0260e01b7bffffffffffffffffffffffffffffffffffffffffffffffffffffffff1916817bffffffffffffffffffffffffffffffffffffffffffffffffffffffff19161491505061265e565b600190505b949350505050565b6000808273ffffffffffffffffffffffffffffffffffffffff163b119050919050565b6040518060c0016040528060008152602001600015158152602001600081526020016000815260200160008152602001600081525090565b6000604051905090565b600080fd5b600080fd5b60007fffffffff0000000000000000000000000000000000000000000000000000000082169050919050565b61270a816126d5565b811461271557600080fd5b50565b60008135905061272781612701565b92915050565b600060208284031215612743576127426126cb565b5b600061275184828501612718565b91505092915050565b60008115159050919050565b61276f8161275a565b82525050565b600060208201905061278a6000830184612766565b92915050565b600081519050919050565b600082825260208201905092915050565b60005b838110156127ca5780820151818401526020810190506127af565b838111156127d9576000848401525b50505050565b6000601f19601f8301169050919050565b60006127fb82612790565b612805818561279b565b93506128158185602086016127ac565b61281e816127df565b840191505092915050565b6000602082019050818103600083015261284381846127f0565b905092915050565b6000819050919050565b61285e8161284b565b811461286957600080fd5b50565b60008135905061287b81612855565b92915050565b600060208284031215612897576128966126cb565b5b60006128a58482850161286c565b91505092915050565b600073ffffffffffffffffffffffffffffffffffffffff82169050919050565b60006128d9826128ae565b9050919050565b6128e9816128ce565b82525050565b600060208201905061290460008301846128e0565b92915050565b612913816128ce565b811461291e57600080fd5b50565b6000813590506129308161290a565b92915050565b6000806040838503121561294d5761294c6126cb565b5b600061295b85828601612921565b925050602061296c8582860161286c565b9150509250929050565b60008060006060848603121561298f5761298e6126cb565b5b600061299d8682870161286c565b93505060206129ae8682870161286c565b92505060406129bf8682870161286c565b9150509250925092565b6000806000606084860312156129e2576129e16126cb565b5b60006129f086828701612921565b9350506020612a0186828701612921565b9250506040612a128682870161286c565b9150509250925092565b600081519050919050565b600082825260208201905092915050565b6000819050602082019050919050565b612a518161284b565b82525050565b612a608161275a565b82525050565b60c082016000820151612a7c6000850182612a48565b506020820151612a8f6020850182612a57565b506040820151612aa26040850182612a48565b506060820151612ab56060850182612a48565b506080820151612ac86080850182612a48565b5060a0820151612adb60a0850182612a48565b50505050565b6000612aed8383612a66565b60c08301905092915050565b6000602082019050919050565b6000612b1182612a1c565b612b1b8185612a27565b9350612b2683612a38565b8060005b83811015612b57578151612b3e8882612ae1565b9750612b4983612af9565b925050600181019050612b2a565b5085935050505092915050565b60006020820190508181036000830152612b7e8184612b06565b905092915050565b600060208284031215612b9c57612b9b6126cb565b5b6000612baa84828501612921565b91505092915050565b612bbc8161284b565b82525050565b6000602082019050612bd76000830184612bb3565b92915050565b612be68161275a565b8114612bf157600080fd5b50565b600081359050612c0381612bdd565b92915050565b60008060408385031215612c2057612c1f6126cb565b5b6000612c2e85828601612921565b9250506020612c3f85828601612bf4565b9150509250929050565b60008060408385031215612c6057612c5f6126cb565b5b6000612c6e8582860161286c565b9250506020612c7f8582860161286c565b9150509250929050565b600080fd5b600080fd5b7f4e487b7100000000000000000000000000000000000000000000000000000000600052604160045260246000fd5b612ccb826127df565b810181811067ffffffffffffffff82111715612cea57612ce9612c93565b5b80604052505050565b6000612cfd6126c1565b9050612d098282612cc2565b919050565b600067ffffffffffffffff821115612d2957612d28612c93565b5b612d32826127df565b9050602081019050919050565b82818337600083830152505050565b6000612d61612d5c84612d0e565b612cf3565b905082815260208101848484011115612d7d57612d7c612c8e565b5b612d88848285612d3f565b509392505050565b600082601f830112612da557612da4612c89565b5b8135612db5848260208601612d4e565b91505092915050565b60008060008060808587031215612dd857612dd76126cb565b5b6000612de687828801612921565b9450506020612df787828801612921565b9350506040612e088782880161286c565b925050606085013567ffffffffffffffff811115612e2957612e286126d0565b5b612e3587828801612d90565b91505092959194509250565b60008060408385031215612e5857612e576126cb565b5b6000612e6685828601612921565b9250506020612e7785828601612921565b9150509250929050565b600060c082019050612e966000830189612bb3565b612ea36020830188612766565b612eb06040830187612bb3565b612ebd6060830186612bb3565b612eca6080830185612bb3565b612ed760a0830184612bb3565b979650505050505050565b7f4e487b7100000000000000000000000000000000000000000000000000000000600052602260045260246000fd5b60006002820490506001821680612f2957607f821691505b602082108103612f3c57612f3b612ee2565b5b50919050565b7f4552433732313a20617070726f76616c20746f2063757272656e74206f776e6560008201527f7200000000000000000000000000000000000000000000000000000000000000602082015250565b6000612f9e60218361279b565b9150612fa982612f42565b604082019050919050565b60006020820190508181036000830152612fcd81612f91565b9050919050565b7f4552433732313a20617070726f76652063616c6c6572206973206e6f7420746f60008201527f6b656e206f776e6572206e6f7220617070726f76656420666f7220616c6c0000602082015250565b6000613030603e8361279b565b915061303b82612fd4565b604082019050919050565b6000602082019050818103600083015261305f81613023565b9050919050565b7f4e6f742061206d616e7566616374757265720000000000000000000000000000600082015250565b600061309c60128361279b565b91506130a782613066565b602082019050919050565b600060208201905081810360008301526130cb8161308f565b9050919050565b7f496e737566666963656e742046756e6473200000000000000000000000000000600082015250565b600061310860128361279b565b9150613113826130d2565b602082019050919050565b60006020820190508181036000830152613137816130fb565b9050919050565b7f4e487b7100000000000000000000000000000000000000000000000000000000600052601160045260246000fd5b60006131788261284b565b91507fffffffffffffffffffffffffffffffffffffffffffffffffffffffffffffffff82036131aa576131a961313e565b5b600182019050919050565b60006040820190506131ca60008301856128e0565b6131d76020830184612bb3565b9392505050565b7f4552433732313a2063616c6c6572206973206e6f7420746f6b656e206f776e6560008201527f72206e6f7220617070726f766564000000000000000000000000000000000000602082015250565b600061323a602e8361279b565b9150613245826131de565b604082019050919050565b600060208201905081810360008301526132698161322d565b9050919050565b600061327b8261284b565b91506132868361284b565b9250827fffffffffffffffffffffffffffffffffffffffffffffffffffffffffffffffff038211156132bb576132ba61313e565b5b828201905092915050565b7f4e487b7100000000000000000000000000000000000000000000000000000000600052603260045260246000fd5b7f4552433732313a20696e76616c696420746f6b656e2049440000000000000000600082015250565b600061332b60188361279b565b9150613336826132f5565b602082019050919050565b6000602082019050818103600083015261335a8161331e565b9050919050565b7f4552433732313a2061646472657373207a65726f206973206e6f74206120766160008201527f6c6964206f776e65720000000000000000000000000000000000000000000000602082015250565b60006133bd60298361279b565b91506133c882613361565b604082019050919050565b600060208201905081810360008301526133ec816133b0565b9050919050565b7f416c72656164792061206d616e75666163747572657200000000000000000000600082015250565b600061342960168361279b565b9150613434826133f3565b602082019050919050565b600060208201905081810360008301526134588161341c565b9050919050565b7f4e4654206e6f742076616c696400000000000000000000000000000000000000600082015250565b6000613495600d8361279b565b91506134a08261345f565b602082019050919050565b600060208201905081810360008301526134c481613488565b9050919050565b7f4f6e6c79204f776e65722063616e20706f737420746865697220636172000000600082015250565b6000613501601d8361279b565b915061350c826134cb565b602082019050919050565b60006020820190508181036000830152613530816134f4565b9050919050565b7f43617220416c7265616479206f6e2053616c6500000000000000000000000000600082015250565b600061356d60138361279b565b915061357882613537565b602082019050919050565b6000602082019050818103600083015261359c81613560565b9050919050565b600081905092915050565b60006135b982612790565b6135c381856135a3565b93506135d38185602086016127ac565b80840191505092915050565b60006135eb82856135ae565b91506135f782846135ae565b91508190509392505050565b7f416c7265616479206f776e6572206f6620746869732063617200000000000000600082015250565b600061363960198361279b565b915061364482613603565b602082019050919050565b600060208201905081810360008301526136688161362c565b9050919050565b7f496e7375666669636e65742066756e647320746f206275790000000000000000600082015250565b60006136a560188361279b565b91506136b08261366f565b602082019050919050565b600060208201905081810360008301526136d481613698565b9050919050565b7f436172206e6f74206f6e2073616c650000000000000000000000000000000000600082015250565b6000613711600f8361279b565b915061371c826136db565b602082019050919050565b6000602082019050818103600083015261374081613704565b9050919050565b6000819050919050565b600061376c613767613762846128ae565b613747565b6128ae565b9050919050565b600061377e82613751565b9050919050565b600061379082613773565b9050919050565b6137a081613785565b82525050565b60006060820190506137bb6000830186613797565b6137c860208301856128e0565b6137d56040830184612bb3565b949350505050565b7f4552433732313a206d696e7420746f20746865207a65726f2061646472657373600082015250565b600061381360208361279b565b915061381e826137dd565b602082019050919050565b6000602082019050818103600083015261384281613806565b9050919050565b7f4552433732313a20746f6b656e20616c7265616479206d696e74656400000000600082015250565b600061387f601c8361279b565b915061388a82613849565b602082019050919050565b600060208201905081810360008301526138ae81613872565b9050919050565b7f4552433732313a207472616e736665722066726f6d20696e636f72726563742060008201527f6f776e6572000000000000000000000000000000000000000000000000000000602082015250565b600061391160258361279b565b915061391c826138b5565b604082019050919050565b6000602082019050818103600083015261394081613904565b9050919050565b7f4552433732313a207472616e7366657220746f20746865207a65726f2061646460008201527f7265737300000000000000000000000000000000000000000000000000000000602082015250565b60006139a360248361279b565b91506139ae82613947565b604082019050919050565b600060208201905081810360008301526139d281613996565b9050919050565b60006139e48261284b565b91506139ef8361284b565b925082821015613a0257613a0161313e565b5b828203905092915050565b7f4552433732313a20617070726f766520746f2063616c6c657200000000000000600082015250565b6000613a4360198361279b565b9150613a4e82613a0d565b602082019050919050565b60006020820190508181036000830152613a7281613a36565b9050919050565b7f4552433732313a207472616e7366657220746f206e6f6e20455243373231526560008201527f63656976657220696d706c656d656e7465720000000000000000000000000000602082015250565b6000613ad560328361279b565b9150613ae082613a79565b604082019050919050565b60006020820190508181036000830152613b0481613ac8565b9050919050565b7f4e487b7100000000000000000000000000000000000000000000000000000000600052601260045260246000fd5b6000613b458261284b565b9150613b508361284b565b925082613b6057613b5f613b0b565b5b828204905092915050565b6000613b768261284b565b9150613b818361284b565b925082613b9157613b90613b0b565b5b828206905092915050565b600081519050919050565b600082825260208201905092915050565b6000613bc382613b9c565b613bcd8185613ba7565b9350613bdd8185602086016127ac565b613be6816127df565b840191505092915050565b6000608082019050613c0660008301876128e0565b613c1360208301866128e0565b613c206040830185612bb3565b8181036060830152613c328184613bb8565b905095945050505050565b600081519050613c4c81612701565b92915050565b600060208284031215613c6857613c676126cb565b5b6000613c7684828501613c3d565b9150509291505056fea2646970667358221220417eb575e1f4e341124659fa419fd63ba2e6d9675548288e5c16ca39169d614d64736f6c634300080f0033",
  "immutableReferences": {},
  "source": "pragma solidity ^0.8.15;\n\n \n\n/*\n\n    1. Seller can add cars as nfts\n    2. Buyers can buy cars\n    3. User(seller,buyer) can sell their owned cars to another user\n    4. Set minting cost of a car(based on it's features,aplly some maths) to ensure a seller cannnot mint unlimited cars\n    5. For point 4, transfer that ether to contract\n    6. Login system via react\n    7. Car owner can also choose not put a car on sale\n\n*/\n\nimport \"@openzeppelin/contracts/token/ERC721/ERC721.sol\";\n\n\n\n\ncontract CarTrade is ERC721{\n\n\n\n    \n    struct Car{\n\n        uint id; //token id\n\n        //address payable owner;\n        bool onSale;\n\n        uint mileage;\n        uint engine;\n        uint fuel;\n\n\n        uint  price;\n\n        \n\n    }\n\n    \n    string private contractName ;\n    \n    uint depr_mileage;\n    uint depr_engine;\n    uint depr_fuel;\n    uint totalCars=0;\n    mapping(uint=> bool) public nft;\n    mapping(uint => Car) public cars;\n    mapping(address => bool) manufacturers;\n    \n\n    modifier onlyManufacturer {\n      require(manufacturers[msg.sender]==true,'Not a manufacturer');\n      _;\n   }\n\n   modifier validNFT(uint id){\n\n    require(nft[id]==true,'NFT not valid');\n    _;\n   }\n   \n    \n   event makeCarEvent(\n\n    address owner,\n    uint carId\n    );\n\n    event registerEvent(\n\n        address manufacturer\n    );\n\n    event buyEvent(\n\n        address from,\n        address to,\n        uint carId\n    );\n\n    event postCarEvent(\n\n        address owner,\n        uint carId\n    );\n\n\n   constructor(\n    string memory _name, \n    string memory _symbol,\n    uint _depr_mileage,\n    uint _depr_engine,\n    uint _depr_fuel\n    ) ERC721(_name,_symbol){\n\n        contractName = \" A Car Marketplace\";\n\n        depr_mileage=_depr_mileage;\n        depr_engine = _depr_engine;\n        depr_fuel = _depr_fuel;\n   }\n\n   function getName() public view returns(string memory) {\n\n        return contractName;\n\n   }\n\n \n    function getListedCars() public view returns (Car[] memory) {\n    \n\n    \n\n    uint n=0;\n\n     for (uint i = 0; i < totalCars; i++) {\n      if (nft[i] && cars[i + 1].onSale) {\n        n+=1;\n\n      }\n    }\n\n    Car[] memory onSaleCars=new Car[](n);\n    uint idx=0;\n    \n    for (uint i = 0; i < totalCars; i++) {\n      if (nft[i] && cars[i + 1].onSale) {\n        onSaleCars[idx]=(cars[i + 1]);\n        idx++;\n       \n      }\n    }\n    return onSaleCars;\n  }\n\n  function getMyCars() public view returns (Car[] memory) {\n\n   \n\n    uint n=0;\n\n    for (uint i = 0; i < totalCars; i++) {\n      if (nft[i+1] &&  ownerOf(i+1) == msg.sender) {\n        n+=1;\n      }\n    }\n\n     Car[] memory myCars=new Car[](n);\n\n     uint idx=0;\n\n   \n    for (uint i = 0; i < totalCars; i++) {\n      if (nft[i+1] &&  ownerOf(i+1) == msg.sender) {\n        myCars[idx]=(cars[i + 1]);\n        idx+=1;\n      }\n    }\n\n    \n    return myCars;\n  }\n\n\n    function get_price(uint mileage,\n    uint engine,\n    uint fuel\n    ) public view returns(uint){\n\n        uint price =  mileage + engine + fuel;\n\n        return price;\n\n\n    }\n\n\n    function depreciate_car(uint id) validNFT(id) private   {\n\n        \n        Car storage  c = cars[id];\n\n        c.mileage -= depr_mileage;\n        c.engine -= depr_engine;\n        c.fuel -= depr_fuel;\n\n        if(c.mileage <=0 || c.engine <=0 || c.fuel <=0){\n\n            \n\n            nft[id]=false;\n\n            \n\n        }\n\n        \n\n    }\n\n    function register_as_manufacturer() public{\n\n        require(manufacturers[msg.sender]==false,'Already a manufacturer');\n\n       manufacturers[msg.sender]=true;\n\n        \n\n        emit registerEvent(msg.sender);\n\n    }\n                                                                                        \n   \n    \n    function makeCar(uint mileage,uint engine,uint fuel)  payable onlyManufacturer\n        public\n        \n    {   \n       \n        \n        uint price = get_price(mileage,engine,fuel);\n\n\n        require(msg.value == price,'Insufficent Funds ');\n        require(mileage>0);\n        require(engine>0);\n        require(engine>0);\n\n         Car memory c = Car(++totalCars\n         ,false\n         ,mileage\n         ,engine\n         ,fuel\n         ,price\n         );\n\n        \n        cars[totalCars]=c;\n        _mint(msg.sender, totalCars);\n        nft[totalCars]=true;\n\n        emit makeCarEvent(ownerOf(totalCars),c.id);\n         \n        \n        \n    }\n\n   \n    function buy(uint id) validNFT(id) payable public{\n\n        \n        Car storage c = cars[id];\n\n        \n\n        require(msg.sender!=ownerOf(id),'Already owner of this car');\n\n        require(msg.value ==c.price,'Insufficnet funds to buy');\n\n        require(c.onSale==true,'Car not on sale');\n\n        address payable prev_owner = payable(ownerOf(id));\n\n        prev_owner.transfer(msg.value); //money sent\n\n        \n\n        //transfer nft\n\n        _transfer(prev_owner,msg.sender,c.id);\n\n        \n\n        c.onSale = false;\n\n        \n\n        depreciate_car(c.id);\n\n        \n        if(nft[id]==true)\n        c.price = get_price(c.mileage,c.engine,c.fuel);\n\n        emit buyEvent(prev_owner,msg.sender,c.id);\n\n\n    }\n\n    function postCar(uint id,uint price) validNFT(id)  public {\n\n        \n        Car storage c = cars[id];\n\n        require(msg.sender == ownerOf(id),'Only Owner can post their car');\n        require(c.onSale==false,'Car Already on Sale');\n      \n        c.onSale = true;\n        c.price  = price;\n    \n\n        emit postCarEvent(msg.sender,c.id);\n\n    }\n\n    \n\n}",
  "sourcePath": "/home/alabhinav/Documents/solidity/CarTrade/src/contracts/CarTrade.sol",
  "compiler": {
    "name": "solc",
    "version": "0.8.15+commit.e14f2714.Emscripten.clang"
  },
  "schemaVersion": "3.4.8",
  "updatedAt": "2022-08-01T13:51:23.334Z",
  "networkType": "ethereum",
  "devdoc": {
    "kind": "dev",
    "methods": {
      "approve(address,uint256)": {
        "details": "See {IERC721-approve}."
      },
      "balanceOf(address)": {
        "details": "See {IERC721-balanceOf}."
      },
      "getApproved(uint256)": {
        "details": "See {IERC721-getApproved}."
      },
      "isApprovedForAll(address,address)": {
        "details": "See {IERC721-isApprovedForAll}."
      },
      "name()": {
        "details": "See {IERC721Metadata-name}."
      },
      "ownerOf(uint256)": {
        "details": "See {IERC721-ownerOf}."
      },
      "safeTransferFrom(address,address,uint256)": {
        "details": "See {IERC721-safeTransferFrom}."
      },
      "safeTransferFrom(address,address,uint256,bytes)": {
        "details": "See {IERC721-safeTransferFrom}."
      },
      "setApprovalForAll(address,bool)": {
        "details": "See {IERC721-setApprovalForAll}."
      },
      "supportsInterface(bytes4)": {
        "details": "See {IERC165-supportsInterface}."
      },
      "symbol()": {
        "details": "See {IERC721Metadata-symbol}."
      },
      "tokenURI(uint256)": {
        "details": "See {IERC721Metadata-tokenURI}."
      },
      "transferFrom(address,address,uint256)": {
        "details": "See {IERC721-transferFrom}."
      }
    },
    "version": 1
  },
  "userdoc": {
    "kind": "user",
    "methods": {},
    "version": 1
  }
}