{
  "contractName": "CarTrade",
  "abi": [
    {
      "inputs": [
        {
          "internalType": "string",
          "name": "_name",
          "type": "string"
        },
        {
          "internalType": "string",
          "name": "_symbol",
          "type": "string"
        },
        {
          "internalType": "uint256",
          "name": "_depr_mileage",
          "type": "uint256"
        },
        {
          "internalType": "uint256",
          "name": "_depr_engine",
          "type": "uint256"
        },
        {
          "internalType": "uint256",
          "name": "_depr_fuel",
          "type": "uint256"
        }
      ],
      "stateMutability": "nonpayable",
      "type": "constructor"
    },
    {
      "anonymous": false,
      "inputs": [
        {
          "indexed": true,
          "internalType": "address",
          "name": "owner",
          "type": "address"
        },
        {
          "indexed": true,
          "internalType": "address",
          "name": "approved",
          "type": "address"
        },
        {
          "indexed": true,
          "internalType": "uint256",
          "name": "tokenId",
          "type": "uint256"
        }
      ],
      "name": "Approval",
      "type": "event"
    },
    {
      "anonymous": false,
      "inputs": [
        {
          "indexed": true,
          "internalType": "address",
          "name": "owner",
          "type": "address"
        },
        {
          "indexed": true,
          "internalType": "address",
          "name": "operator",
          "type": "address"
        },
        {
          "indexed": false,
          "internalType": "bool",
          "name": "approved",
          "type": "bool"
        }
      ],
      "name": "ApprovalForAll",
      "type": "event"
    },
    {
      "anonymous": false,
      "inputs": [
        {
          "indexed": true,
          "internalType": "address",
          "name": "from",
          "type": "address"
        },
        {
          "indexed": true,
          "internalType": "address",
          "name": "to",
          "type": "address"
        },
        {
          "indexed": true,
          "internalType": "uint256",
          "name": "tokenId",
          "type": "uint256"
        }
      ],
      "name": "Transfer",
      "type": "event"
    },
    {
      "anonymous": false,
      "inputs": [
        {
          "indexed": false,
          "internalType": "address",
          "name": "from",
          "type": "address"
        },
        {
          "indexed": false,
          "internalType": "address",
          "name": "to",
          "type": "address"
        },
        {
          "indexed": false,
          "internalType": "uint256",
          "name": "carId",
          "type": "uint256"
        }
      ],
      "name": "buyEvent",
      "type": "event"
    },
    {
      "anonymous": false,
      "inputs": [
        {
          "indexed": false,
          "internalType": "address",
          "name": "owner",
          "type": "address"
        },
        {
          "indexed": false,
          "internalType": "uint256",
          "name": "carId",
          "type": "uint256"
        }
      ],
      "name": "makeCarEvent",
      "type": "event"
    },
    {
      "anonymous": false,
      "inputs": [
        {
          "indexed": false,
          "internalType": "address",
          "name": "owner",
          "type": "address"
        },
        {
          "indexed": false,
          "internalType": "uint256",
          "name": "carId",
          "type": "uint256"
        }
      ],
      "name": "postCarEvent",
      "type": "event"
    },
    {
      "anonymous": false,
      "inputs": [
        {
          "indexed": false,
          "internalType": "address",
          "name": "manufacturer",
          "type": "address"
        }
      ],
      "name": "registerEvent",
      "type": "event"
    },
    {
      "inputs": [
        {
          "internalType": "address",
          "name": "to",
          "type": "address"
        },
        {
          "internalType": "uint256",
          "name": "tokenId",
          "type": "uint256"
        }
      ],
      "name": "approve",
      "outputs": [],
      "stateMutability": "nonpayable",
      "type": "function"
    },
    {
      "inputs": [
        {
          "internalType": "address",
          "name": "owner",
          "type": "address"
        }
      ],
      "name": "balanceOf",
      "outputs": [
        {
          "internalType": "uint256",
          "name": "",
          "type": "uint256"
        }
      ],
      "stateMutability": "view",
      "type": "function",
      "constant": true
    },
    {
      "inputs": [
        {
          "internalType": "uint256",
          "name": "tokenId",
          "type": "uint256"
        }
      ],
      "name": "getApproved",
      "outputs": [
        {
          "internalType": "address",
          "name": "",
          "type": "address"
        }
      ],
      "stateMutability": "view",
      "type": "function",
      "constant": true
    },
    {
      "inputs": [
        {
          "internalType": "address",
          "name": "owner",
          "type": "address"
        },
        {
          "internalType": "address",
          "name": "operator",
          "type": "address"
        }
      ],
      "name": "isApprovedForAll",
      "outputs": [
        {
          "internalType": "bool",
          "name": "",
          "type": "bool"
        }
      ],
      "stateMutability": "view",
      "type": "function",
      "constant": true
    },
    {
      "inputs": [],
      "name": "name",
      "outputs": [
        {
          "internalType": "string",
          "name": "",
          "type": "string"
        }
      ],
      "stateMutability": "view",
      "type": "function",
      "constant": true
    },
    {
      "inputs": [
        {
          "internalType": "uint256",
          "name": "tokenId",
          "type": "uint256"
        }
      ],
      "name": "ownerOf",
      "outputs": [
        {
          "internalType": "address",
          "name": "",
          "type": "address"
        }
      ],
      "stateMutability": "view",
      "type": "function",
      "constant": true
    },
    {
      "inputs": [
        {
          "internalType": "address",
          "name": "from",
          "type": "address"
        },
        {
          "internalType": "address",
          "name": "to",
          "type": "address"
        },
        {
          "internalType": "uint256",
          "name": "tokenId",
          "type": "uint256"
        }
      ],
      "name": "safeTransferFrom",
      "outputs": [],
      "stateMutability": "nonpayable",
      "type": "function"
    },
    {
      "inputs": [
        {
          "internalType": "address",
          "name": "from",
          "type": "address"
        },
        {
          "internalType": "address",
          "name": "to",
          "type": "address"
        },
        {
          "internalType": "uint256",
          "name": "tokenId",
          "type": "uint256"
        },
        {
          "internalType": "bytes",
          "name": "data",
          "type": "bytes"
        }
      ],
      "name": "safeTransferFrom",
      "outputs": [],
      "stateMutability": "nonpayable",
      "type": "function"
    },
    {
      "inputs": [
        {
          "internalType": "address",
          "name": "operator",
          "type": "address"
        },
        {
          "internalType": "bool",
          "name": "approved",
          "type": "bool"
        }
      ],
      "name": "setApprovalForAll",
      "outputs": [],
      "stateMutability": "nonpayable",
      "type": "function"
    },
    {
      "inputs": [
        {
          "internalType": "bytes4",
          "name": "interfaceId",
          "type": "bytes4"
        }
      ],
      "name": "supportsInterface",
      "outputs": [
        {
          "internalType": "bool",
          "name": "",
          "type": "bool"
        }
      ],
      "stateMutability": "view",
      "type": "function",
      "constant": true
    },
    {
      "inputs": [],
      "name": "symbol",
      "outputs": [
        {
          "internalType": "string",
          "name": "",
          "type": "string"
        }
      ],
      "stateMutability": "view",
      "type": "function",
      "constant": true
    },
    {
      "inputs": [
        {
          "internalType": "uint256",
          "name": "tokenId",
          "type": "uint256"
        }
      ],
      "name": "tokenURI",
      "outputs": [
        {
          "internalType": "string",
          "name": "",
          "type": "string"
        }
      ],
      "stateMutability": "view",
      "type": "function",
      "constant": true
    },
    {
      "inputs": [
        {
          "internalType": "address",
          "name": "from",
          "type": "address"
        },
        {
          "internalType": "address",
          "name": "to",
          "type": "address"
        },
        {
          "internalType": "uint256",
          "name": "tokenId",
          "type": "uint256"
        }
      ],
      "name": "transferFrom",
      "outputs": [],
      "stateMutability": "nonpayable",
      "type": "function"
    },
    {
      "inputs": [],
      "name": "getName",
      "outputs": [
        {
          "internalType": "string",
          "name": "",
          "type": "string"
        }
      ],
      "stateMutability": "view",
      "type": "function",
      "constant": true
    },
    {
      "inputs": [
        {
          "internalType": "uint256",
          "name": "mileage",
          "type": "uint256"
        },
        {
          "internalType": "uint256",
          "name": "engine",
          "type": "uint256"
        },
        {
          "internalType": "uint256",
          "name": "fuel",
          "type": "uint256"
        }
      ],
      "name": "get_price",
      "outputs": [
        {
          "internalType": "uint256",
          "name": "",
          "type": "uint256"
        }
      ],
      "stateMutability": "view",
      "type": "function",
      "constant": true
    },
    {
      "inputs": [],
      "name": "register_as_manufacturer",
      "outputs": [],
      "stateMutability": "nonpayable",
      "type": "function"
    },
    {
      "inputs": [
        {
          "internalType": "uint256",
          "name": "mileage",
          "type": "uint256"
        },
        {
          "internalType": "uint256",
          "name": "engine",
          "type": "uint256"
        },
        {
          "internalType": "uint256",
          "name": "fuel",
          "type": "uint256"
        }
      ],
      "name": "makeCar",
      "outputs": [],
      "stateMutability": "payable",
      "type": "function",
      "payable": true
    },
    {
      "inputs": [
        {
          "internalType": "uint256",
          "name": "id",
          "type": "uint256"
        }
      ],
      "name": "buy",
      "outputs": [],
      "stateMutability": "payable",
      "type": "function",
      "payable": true
    },
    {
      "inputs": [
        {
          "internalType": "uint256",
          "name": "id",
          "type": "uint256"
        },
        {
          "internalType": "uint256",
          "name": "price",
          "type": "uint256"
        }
      ],
      "name": "postCar",
      "outputs": [],
      "stateMutability": "nonpayable",
      "type": "function"
    }
  ],
  "bytecode": "0x608060405260016008556000600c553480156200001b57600080fd5b5060405162003d0738038062003d078339818101604052810190620000419190620002a8565b84848160009081620000549190620005af565b508060019081620000669190620005af565b5050506040518060400160405280601281526020017f204120436172204d61726b6574706c616365000000000000000000000000000081525060079081620000af9190620005af565b508260098190555081600a8190555080600b81905550505050505062000696565b6000604051905090565b600080fd5b600080fd5b600080fd5b600080fd5b6000601f19601f8301169050919050565b7f4e487b7100000000000000000000000000000000000000000000000000000000600052604160045260246000fd5b6200013982620000ee565b810181811067ffffffffffffffff821117156200015b576200015a620000ff565b5b80604052505050565b600062000170620000d0565b90506200017e82826200012e565b919050565b600067ffffffffffffffff821115620001a157620001a0620000ff565b5b620001ac82620000ee565b9050602081019050919050565b60005b83811015620001d9578082015181840152602081019050620001bc565b83811115620001e9576000848401525b50505050565b600062000206620002008462000183565b62000164565b905082815260208101848484011115620002255762000224620000e9565b5b62000232848285620001b9565b509392505050565b600082601f830112620002525762000251620000e4565b5b815162000264848260208601620001ef565b91505092915050565b6000819050919050565b62000282816200026d565b81146200028e57600080fd5b50565b600081519050620002a28162000277565b92915050565b600080600080600060a08688031215620002c757620002c6620000da565b5b600086015167ffffffffffffffff811115620002e857620002e7620000df565b5b620002f6888289016200023a565b955050602086015167ffffffffffffffff8111156200031a5762000319620000df565b5b62000328888289016200023a565b94505060406200033b8882890162000291565b93505060606200034e8882890162000291565b9250506080620003618882890162000291565b9150509295509295909350565b600081519050919050565b7f4e487b7100000000000000000000000000000000000000000000000000000000600052602260045260246000fd5b60006002820490506001821680620003c157607f821691505b602082108103620003d757620003d662000379565b5b50919050565b60008190508160005260206000209050919050565b60006020601f8301049050919050565b600082821b905092915050565b600060088302620004417fffffffffffffffffffffffffffffffffffffffffffffffffffffffffffffffff8262000402565b6200044d868362000402565b95508019841693508086168417925050509392505050565b6000819050919050565b6000620004906200048a62000484846200026d565b62000465565b6200026d565b9050919050565b6000819050919050565b620004ac836200046f565b620004c4620004bb8262000497565b8484546200040f565b825550505050565b600090565b620004db620004cc565b620004e8818484620004a1565b505050565b5b81811015620005105762000504600082620004d1565b600181019050620004ee565b5050565b601f8211156200055f576200052981620003dd565b6200053484620003f2565b8101602085101562000544578190505b6200055c6200055385620003f2565b830182620004ed565b50505b505050565b600082821c905092915050565b6000620005846000198460080262000564565b1980831691505092915050565b60006200059f838362000571565b9150826002028217905092915050565b620005ba826200036e565b67ffffffffffffffff811115620005d657620005d5620000ff565b5b620005e28254620003a8565b620005ef82828562000514565b600060209050601f83116001811462000627576000841562000612578287015190505b6200061e858262000591565b8655506200068e565b601f1984166200063786620003dd565b60005b8281101562000661578489015182556001820191506020850194506020810190506200063a565b868310156200068157848901516200067d601f89168262000571565b8355505b6001600288020188555050505b505050505050565b61366180620006a66000396000f3fe6080604052600436106101145760003560e01c806370a08231116100a0578063b665f34b11610064578063b665f34b1461038e578063b88d4fde146103cb578063c87b56dd146103f4578063d96a094a14610431578063e985e9c51461044d57610114565b806370a08231146102bd5780638b5bc058146102fa57806395d89b4114610311578063a22cb4651461033c578063a9dcae8a1461036557610114565b806310bcef2d116100e757806310bcef2d146101e757806317d7de7c1461020357806323b872dd1461022e57806342842e0e146102575780636352211e1461028057610114565b806301ffc9a71461011957806306fdde0314610156578063081812fc14610181578063095ea7b3146101be575b600080fd5b34801561012557600080fd5b50610140600480360381019061013b919061224a565b61048a565b60405161014d9190612292565b60405180910390f35b34801561016257600080fd5b5061016b61056c565b6040516101789190612346565b60405180910390f35b34801561018d57600080fd5b506101a860048036038101906101a3919061239e565b6105fe565b6040516101b5919061240c565b60405180910390f35b3480156101ca57600080fd5b506101e560048036038101906101e09190612453565b610644565b005b61020160048036038101906101fc9190612493565b61075b565b005b34801561020f57600080fd5b506102186109a1565b6040516102259190612346565b60405180910390f35b34801561023a57600080fd5b50610255600480360381019061025091906124e6565b610a33565b005b34801561026357600080fd5b5061027e600480360381019061027991906124e6565b610a93565b005b34801561028c57600080fd5b506102a760048036038101906102a2919061239e565b610ab3565b6040516102b4919061240c565b60405180910390f35b3480156102c957600080fd5b506102e460048036038101906102df9190612539565b610b64565b6040516102f19190612575565b60405180910390f35b34801561030657600080fd5b5061030f610c1b565b005b34801561031d57600080fd5b50610326610d3f565b6040516103339190612346565b60405180910390f35b34801561034857600080fd5b50610363600480360381019061035e91906125bc565b610dd1565b005b34801561037157600080fd5b5061038c600480360381019061038791906125fc565b610de7565b005b34801561039a57600080fd5b506103b560048036038101906103b09190612493565b610faa565b6040516103c29190612575565b60405180910390f35b3480156103d757600080fd5b506103f260048036038101906103ed9190612771565b610fde565b005b34801561040057600080fd5b5061041b6004803603810190610416919061239e565b611040565b6040516104289190612346565b60405180910390f35b61044b6004803603810190610446919061239e565b611152565b005b34801561045957600080fd5b50610474600480360381019061046f91906127f4565b611403565b6040516104819190612292565b60405180910390f35b60007f80ac58cd000000000000000000000000000000000000000000000000000000007bffffffffffffffffffffffffffffffffffffffffffffffffffffffff1916827bffffffffffffffffffffffffffffffffffffffffffffffffffffffff1916148061055557507f5b5e139f000000000000000000000000000000000000000000000000000000007bffffffffffffffffffffffffffffffffffffffffffffffffffffffff1916827bffffffffffffffffffffffffffffffffffffffffffffffffffffffff1916145b80610565575061056482611497565b5b9050919050565b60606000805461057b90612863565b80601f01602080910402602001604051908101604052809291908181526020018280546105a790612863565b80156105f45780601f106105c9576101008083540402835291602001916105f4565b820191906000526020600020905b8154815290600101906020018083116105d757829003601f168201915b5050505050905090565b600061060982611501565b6004600083815260200190815260200160002060009054906101000a900473ffffffffffffffffffffffffffffffffffffffff169050919050565b600061064f82610ab3565b90508073ffffffffffffffffffffffffffffffffffffffff168373ffffffffffffffffffffffffffffffffffffffff16036106bf576040517f08c379a00000000000000000000000000000000000000000000000000000000081526004016106b690612906565b60405180910390fd5b8073ffffffffffffffffffffffffffffffffffffffff166106de61154c565b73ffffffffffffffffffffffffffffffffffffffff16148061070d575061070c8161070761154c565b611403565b5b61074c576040517f08c379a000000000000000000000000000000000000000000000000000000000815260040161074390612998565b60405180910390fd5b6107568383611554565b505050565b60011515600f60003373ffffffffffffffffffffffffffffffffffffffff1673ffffffffffffffffffffffffffffffffffffffff16815260200190815260200160002060009054906101000a900460ff161515146107ee576040517f08c379a00000000000000000000000000000000000000000000000000000000081526004016107e590612a04565b60405180910390fd5b60006107fb848484610faa565b905080341461083f576040517f08c379a000000000000000000000000000000000000000000000000000000000815260040161083690612a70565b60405180910390fd5b6000841161084c57600080fd5b6000831161085957600080fd5b6000831161086657600080fd5b60006040518060c00160405280600c6000815461088290612abf565b919050819055815260200160001515815260200186815260200185815260200184815260200183815250905080600e6000600c5481526020019081526020016000206000820151816000015560208201518160010160006101000a81548160ff02191690831515021790555060408201518160020155606082015181600301556080820151816004015560a0820151816005015590505061092533600c5461160d565b6001600d6000600c54815260200190815260200160002060006101000a81548160ff0219169083151502179055507f7caa722834cfdd4656a7df1bc96ab60810f3384da6b7c07f8382041aae3dcdf361097f600c54610ab3565b8260000151604051610992929190612b07565b60405180910390a15050505050565b6060600780546109b090612863565b80601f01602080910402602001604051908101604052809291908181526020018280546109dc90612863565b8015610a295780601f106109fe57610100808354040283529160200191610a29565b820191906000526020600020905b815481529060010190602001808311610a0c57829003601f168201915b5050505050905090565b610a44610a3e61154c565b826117e6565b610a83576040517f08c379a0000000000000000000000000000000000000000000000000000000008152600401610a7a90612ba2565b60405180910390fd5b610a8e83838361187b565b505050565b610aae83838360405180602001604052806000815250610fde565b505050565b6000806002600084815260200190815260200160002060009054906101000a900473ffffffffffffffffffffffffffffffffffffffff169050600073ffffffffffffffffffffffffffffffffffffffff168173ffffffffffffffffffffffffffffffffffffffff1603610b5b576040517f08c379a0000000000000000000000000000000000000000000000000000000008152600401610b5290612c0e565b60405180910390fd5b80915050919050565b60008073ffffffffffffffffffffffffffffffffffffffff168273ffffffffffffffffffffffffffffffffffffffff1603610bd4576040517f08c379a0000000000000000000000000000000000000000000000000000000008152600401610bcb90612ca0565b60405180910390fd5b600360008373ffffffffffffffffffffffffffffffffffffffff1673ffffffffffffffffffffffffffffffffffffffff168152602001908152602001600020549050919050565b60001515600f60003373ffffffffffffffffffffffffffffffffffffffff1673ffffffffffffffffffffffffffffffffffffffff16815260200190815260200160002060009054906101000a900460ff16151514610cae576040517f08c379a0000000000000000000000000000000000000000000000000000000008152600401610ca590612d0c565b60405180910390fd5b6001600f60003373ffffffffffffffffffffffffffffffffffffffff1673ffffffffffffffffffffffffffffffffffffffff16815260200190815260200160002060006101000a81548160ff0219169083151502179055507f60d9b769ccb69037368a6e5d5515b08014a71ed00794df5500bdf5683be488d533604051610d35919061240c565b60405180910390a1565b606060018054610d4e90612863565b80601f0160208091040260200160405190810160405280929190818152602001828054610d7a90612863565b8015610dc75780601f10610d9c57610100808354040283529160200191610dc7565b820191906000526020600020905b815481529060010190602001808311610daa57829003601f168201915b5050505050905090565b610de3610ddc61154c565b8383611ae1565b5050565b8160011515600d600083815260200190815260200160002060009054906101000a900460ff16151514610e4f576040517f08c379a0000000000000000000000000000000000000000000000000000000008152600401610e4690612d78565b60405180910390fd5b6000600e60008581526020019081526020016000209050610e6f84610ab3565b73ffffffffffffffffffffffffffffffffffffffff163373ffffffffffffffffffffffffffffffffffffffff1614610edc576040517f08c379a0000000000000000000000000000000000000000000000000000000008152600401610ed390612de4565b60405180910390fd5b600015158160010160009054906101000a900460ff16151514610f34576040517f08c379a0000000000000000000000000000000000000000000000000000000008152600401610f2b90612e50565b60405180910390fd5b60018160010160006101000a81548160ff02191690831515021790555060085483610f5f9190612e70565b81600501819055507f954972dadb2cadfa65116950813403ef2ebadbb85717efda3caab2a363a9427b338260000154604051610f9c929190612b07565b60405180910390a150505050565b600080828486610fba9190612eca565b610fc49190612eca565b905060085481610fd49190612e70565b9150509392505050565b610fef610fe961154c565b836117e6565b61102e576040517f08c379a000000000000000000000000000000000000000000000000000000000815260040161102590612ba2565b60405180910390fd5b61103a84848484611c4d565b50505050565b606061104b82611501565b600060066000848152602001908152602001600020805461106b90612863565b80601f016020809104026020016040519081016040528092919081815260200182805461109790612863565b80156110e45780601f106110b9576101008083540402835291602001916110e4565b820191906000526020600020905b8154815290600101906020018083116110c757829003601f168201915b5050505050905060006110f5611ca9565b9050600081510361110a57819250505061114d565b60008251111561113f578082604051602001611127929190612f5c565b6040516020818303038152906040529250505061114d565b61114884611cc0565b925050505b919050565b8060011515600d600083815260200190815260200160002060009054906101000a900460ff161515146111ba576040517f08c379a00000000000000000000000000000000000000000000000000000000081526004016111b190612d78565b60405180910390fd5b6000600e600084815260200190815260200160002090506111da83610ab3565b73ffffffffffffffffffffffffffffffffffffffff163373ffffffffffffffffffffffffffffffffffffffff1603611247576040517f08c379a000000000000000000000000000000000000000000000000000000000815260040161123e90612fcc565b60405180910390fd5b8060050154341461128d576040517f08c379a000000000000000000000000000000000000000000000000000000000815260040161128490613038565b60405180910390fd5b600115158160010160009054906101000a900460ff161515146112e5576040517f08c379a00000000000000000000000000000000000000000000000000000000081526004016112dc906130a4565b60405180910390fd5b60006112f084610ab3565b90508073ffffffffffffffffffffffffffffffffffffffff166108fc349081150290604051600060405180830381858888f19350505050158015611338573d6000803e3d6000fd5b506113488133846000015461187b565b60008260010160006101000a81548160ff0219169083151502179055506113728260000154611d28565b60011515600d600086815260200190815260200160002060009054906101000a900460ff161515036113be576113b5826002015483600301548460040154610faa565b82600501819055505b7fdc5e8d30783b6abd495b9565cd582570e874840d57b15bb5cddb8fc83fb6e8d7813384600001546040516113f593929190613123565b60405180910390a150505050565b6000600560008473ffffffffffffffffffffffffffffffffffffffff1673ffffffffffffffffffffffffffffffffffffffff16815260200190815260200160002060008373ffffffffffffffffffffffffffffffffffffffff1673ffffffffffffffffffffffffffffffffffffffff16815260200190815260200160002060009054906101000a900460ff16905092915050565b60007f01ffc9a7000000000000000000000000000000000000000000000000000000007bffffffffffffffffffffffffffffffffffffffffffffffffffffffff1916827bffffffffffffffffffffffffffffffffffffffffffffffffffffffff1916149050919050565b61150a81611e5e565b611549576040517f08c379a000000000000000000000000000000000000000000000000000000000815260040161154090612c0e565b60405180910390fd5b50565b600033905090565b816004600083815260200190815260200160002060006101000a81548173ffffffffffffffffffffffffffffffffffffffff021916908373ffffffffffffffffffffffffffffffffffffffff160217905550808273ffffffffffffffffffffffffffffffffffffffff166115c783610ab3565b73ffffffffffffffffffffffffffffffffffffffff167f8c5be1e5ebec7d5bd14f71427d1e84f3dd0314c0f7b2291e5b200ac8c7c3b92560405160405180910390a45050565b600073ffffffffffffffffffffffffffffffffffffffff168273ffffffffffffffffffffffffffffffffffffffff160361167c576040517f08c379a0000000000000000000000000000000000000000000000000000000008152600401611673906131a6565b60405180910390fd5b61168581611e5e565b156116c5576040517f08c379a00000000000000000000000000000000000000000000000000000000081526004016116bc90613212565b60405180910390fd5b6116d160008383611eca565b6001600360008473ffffffffffffffffffffffffffffffffffffffff1673ffffffffffffffffffffffffffffffffffffffff16815260200190815260200160002060008282546117219190612eca565b92505081905550816002600083815260200190815260200160002060006101000a81548173ffffffffffffffffffffffffffffffffffffffff021916908373ffffffffffffffffffffffffffffffffffffffff160217905550808273ffffffffffffffffffffffffffffffffffffffff16600073ffffffffffffffffffffffffffffffffffffffff167fddf252ad1be2c89b69c2b068fc378daa952ba7f163c4a11628f55a4df523b3ef60405160405180910390a46117e260008383611ecf565b5050565b6000806117f283610ab3565b90508073ffffffffffffffffffffffffffffffffffffffff168473ffffffffffffffffffffffffffffffffffffffff16148061183457506118338185611403565b5b8061187257508373ffffffffffffffffffffffffffffffffffffffff1661185a846105fe565b73ffffffffffffffffffffffffffffffffffffffff16145b91505092915050565b8273ffffffffffffffffffffffffffffffffffffffff1661189b82610ab3565b73ffffffffffffffffffffffffffffffffffffffff16146118f1576040517f08c379a00000000000000000000000000000000000000000000000000000000081526004016118e8906132a4565b60405180910390fd5b600073ffffffffffffffffffffffffffffffffffffffff168273ffffffffffffffffffffffffffffffffffffffff1603611960576040517f08c379a000000000000000000000000000000000000000000000000000000000815260040161195790613336565b60405180910390fd5b61196b838383611eca565b611976600082611554565b6001600360008573ffffffffffffffffffffffffffffffffffffffff1673ffffffffffffffffffffffffffffffffffffffff16815260200190815260200160002060008282546119c69190613356565b925050819055506001600360008473ffffffffffffffffffffffffffffffffffffffff1673ffffffffffffffffffffffffffffffffffffffff1681526020019081526020016000206000828254611a1d9190612eca565b92505081905550816002600083815260200190815260200160002060006101000a81548173ffffffffffffffffffffffffffffffffffffffff021916908373ffffffffffffffffffffffffffffffffffffffff160217905550808273ffffffffffffffffffffffffffffffffffffffff168473ffffffffffffffffffffffffffffffffffffffff167fddf252ad1be2c89b69c2b068fc378daa952ba7f163c4a11628f55a4df523b3ef60405160405180910390a4611adc838383611ecf565b505050565b8173ffffffffffffffffffffffffffffffffffffffff168373ffffffffffffffffffffffffffffffffffffffff1603611b4f576040517f08c379a0000000000000000000000000000000000000000000000000000000008152600401611b46906133d6565b60405180910390fd5b80600560008573ffffffffffffffffffffffffffffffffffffffff1673ffffffffffffffffffffffffffffffffffffffff16815260200190815260200160002060008473ffffffffffffffffffffffffffffffffffffffff1673ffffffffffffffffffffffffffffffffffffffff16815260200190815260200160002060006101000a81548160ff0219169083151502179055508173ffffffffffffffffffffffffffffffffffffffff168373ffffffffffffffffffffffffffffffffffffffff167f17307eab39ab6107e8899845ad3d59bd9653f200f220920489ca2b5937696c3183604051611c409190612292565b60405180910390a3505050565b611c5884848461187b565b611c6484848484611ed4565b611ca3576040517f08c379a0000000000000000000000000000000000000000000000000000000008152600401611c9a90613468565b60405180910390fd5b50505050565b606060405180602001604052806000815250905090565b6060611ccb82611501565b6000611cd5611ca9565b90506000815111611cf55760405180602001604052806000815250611d20565b80611cff8461205b565b604051602001611d10929190612f5c565b6040516020818303038152906040525b915050919050565b8060011515600d600083815260200190815260200160002060009054906101000a900460ff16151514611d90576040517f08c379a0000000000000000000000000000000000000000000000000000000008152600401611d8790612d78565b60405180910390fd5b6000600e60008481526020019081526020016000209050600954816002016000828254611dbd9190613356565b92505081905550600a54816003016000828254611dda9190613356565b92505081905550600b54816004016000828254611df79190613356565b9250508190555060008160020154111580611e1757506000816003015411155b80611e2757506000816004015411155b15611e59576000600d600085815260200190815260200160002060006101000a81548160ff0219169083151502179055505b505050565b60008073ffffffffffffffffffffffffffffffffffffffff166002600084815260200190815260200160002060009054906101000a900473ffffffffffffffffffffffffffffffffffffffff1673ffffffffffffffffffffffffffffffffffffffff1614159050919050565b505050565b505050565b6000611ef58473ffffffffffffffffffffffffffffffffffffffff166121bb565b1561204e578373ffffffffffffffffffffffffffffffffffffffff1663150b7a02611f1e61154c565b8786866040518563ffffffff1660e01b8152600401611f4094939291906134dd565b6020604051808303816000875af1925050508015611f7c57506040513d601f19601f82011682018060405250810190611f79919061353e565b60015b611ffe573d8060008114611fac576040519150601f19603f3d011682016040523d82523d6000602084013e611fb1565b606091505b506000815103611ff6576040517f08c379a0000000000000000000000000000000000000000000000000000000008152600401611fed90613468565b60405180910390fd5b805181602001fd5b63150b7a0260e01b7bffffffffffffffffffffffffffffffffffffffffffffffffffffffff1916817bffffffffffffffffffffffffffffffffffffffffffffffffffffffff191614915050612053565b600190505b949350505050565b6060600082036120a2576040518060400160405280600181526020017f300000000000000000000000000000000000000000000000000000000000000081525090506121b6565b600082905060005b600082146120d45780806120bd90612abf565b915050600a826120cd919061359a565b91506120aa565b60008167ffffffffffffffff8111156120f0576120ef612646565b5b6040519080825280601f01601f1916602001820160405280156121225781602001600182028036833780820191505090505b5090505b600085146121af5760018261213b9190613356565b9150600a8561214a91906135cb565b60306121569190612eca565b60f81b81838151811061216c5761216b6135fc565b5b60200101907effffffffffffffffffffffffffffffffffffffffffffffffffffffffffffff1916908160001a905350600a856121a8919061359a565b9450612126565b8093505050505b919050565b6000808273ffffffffffffffffffffffffffffffffffffffff163b119050919050565b6000604051905090565b600080fd5b600080fd5b60007fffffffff0000000000000000000000000000000000000000000000000000000082169050919050565b612227816121f2565b811461223257600080fd5b50565b6000813590506122448161221e565b92915050565b6000602082840312156122605761225f6121e8565b5b600061226e84828501612235565b91505092915050565b60008115159050919050565b61228c81612277565b82525050565b60006020820190506122a76000830184612283565b92915050565b600081519050919050565b600082825260208201905092915050565b60005b838110156122e75780820151818401526020810190506122cc565b838111156122f6576000848401525b50505050565b6000601f19601f8301169050919050565b6000612318826122ad565b61232281856122b8565b93506123328185602086016122c9565b61233b816122fc565b840191505092915050565b60006020820190508181036000830152612360818461230d565b905092915050565b6000819050919050565b61237b81612368565b811461238657600080fd5b50565b60008135905061239881612372565b92915050565b6000602082840312156123b4576123b36121e8565b5b60006123c284828501612389565b91505092915050565b600073ffffffffffffffffffffffffffffffffffffffff82169050919050565b60006123f6826123cb565b9050919050565b612406816123eb565b82525050565b600060208201905061242160008301846123fd565b92915050565b612430816123eb565b811461243b57600080fd5b50565b60008135905061244d81612427565b92915050565b6000806040838503121561246a576124696121e8565b5b60006124788582860161243e565b925050602061248985828601612389565b9150509250929050565b6000806000606084860312156124ac576124ab6121e8565b5b60006124ba86828701612389565b93505060206124cb86828701612389565b92505060406124dc86828701612389565b9150509250925092565b6000806000606084860312156124ff576124fe6121e8565b5b600061250d8682870161243e565b935050602061251e8682870161243e565b925050604061252f86828701612389565b9150509250925092565b60006020828403121561254f5761254e6121e8565b5b600061255d8482850161243e565b91505092915050565b61256f81612368565b82525050565b600060208201905061258a6000830184612566565b92915050565b61259981612277565b81146125a457600080fd5b50565b6000813590506125b681612590565b92915050565b600080604083850312156125d3576125d26121e8565b5b60006125e18582860161243e565b92505060206125f2858286016125a7565b9150509250929050565b60008060408385031215612613576126126121e8565b5b600061262185828601612389565b925050602061263285828601612389565b9150509250929050565b600080fd5b600080fd5b7f4e487b7100000000000000000000000000000000000000000000000000000000600052604160045260246000fd5b61267e826122fc565b810181811067ffffffffffffffff8211171561269d5761269c612646565b5b80604052505050565b60006126b06121de565b90506126bc8282612675565b919050565b600067ffffffffffffffff8211156126dc576126db612646565b5b6126e5826122fc565b9050602081019050919050565b82818337600083830152505050565b600061271461270f846126c1565b6126a6565b9050828152602081018484840111156127305761272f612641565b5b61273b8482856126f2565b509392505050565b600082601f8301126127585761275761263c565b5b8135612768848260208601612701565b91505092915050565b6000806000806080858703121561278b5761278a6121e8565b5b60006127998782880161243e565b94505060206127aa8782880161243e565b93505060406127bb87828801612389565b925050606085013567ffffffffffffffff8111156127dc576127db6121ed565b5b6127e887828801612743565b91505092959194509250565b6000806040838503121561280b5761280a6121e8565b5b60006128198582860161243e565b925050602061282a8582860161243e565b9150509250929050565b7f4e487b7100000000000000000000000000000000000000000000000000000000600052602260045260246000fd5b6000600282049050600182168061287b57607f821691505b60208210810361288e5761288d612834565b5b50919050565b7f4552433732313a20617070726f76616c20746f2063757272656e74206f776e6560008201527f7200000000000000000000000000000000000000000000000000000000000000602082015250565b60006128f06021836122b8565b91506128fb82612894565b604082019050919050565b6000602082019050818103600083015261291f816128e3565b9050919050565b7f4552433732313a20617070726f76652063616c6c6572206973206e6f7420746f60008201527f6b656e206f776e6572206e6f7220617070726f76656420666f7220616c6c0000602082015250565b6000612982603e836122b8565b915061298d82612926565b604082019050919050565b600060208201905081810360008301526129b181612975565b9050919050565b7f4e6f742061206d616e7566616374757265720000000000000000000000000000600082015250565b60006129ee6012836122b8565b91506129f9826129b8565b602082019050919050565b60006020820190508181036000830152612a1d816129e1565b9050919050565b7f496e737566666963656e742046756e6473200000000000000000000000000000600082015250565b6000612a5a6012836122b8565b9150612a6582612a24565b602082019050919050565b60006020820190508181036000830152612a8981612a4d565b9050919050565b7f4e487b7100000000000000000000000000000000000000000000000000000000600052601160045260246000fd5b6000612aca82612368565b91507fffffffffffffffffffffffffffffffffffffffffffffffffffffffffffffffff8203612afc57612afb612a90565b5b600182019050919050565b6000604082019050612b1c60008301856123fd565b612b296020830184612566565b9392505050565b7f4552433732313a2063616c6c6572206973206e6f7420746f6b656e206f776e6560008201527f72206e6f7220617070726f766564000000000000000000000000000000000000602082015250565b6000612b8c602e836122b8565b9150612b9782612b30565b604082019050919050565b60006020820190508181036000830152612bbb81612b7f565b9050919050565b7f4552433732313a20696e76616c696420746f6b656e2049440000000000000000600082015250565b6000612bf86018836122b8565b9150612c0382612bc2565b602082019050919050565b60006020820190508181036000830152612c2781612beb565b9050919050565b7f4552433732313a2061646472657373207a65726f206973206e6f74206120766160008201527f6c6964206f776e65720000000000000000000000000000000000000000000000602082015250565b6000612c8a6029836122b8565b9150612c9582612c2e565b604082019050919050565b60006020820190508181036000830152612cb981612c7d565b9050919050565b7f416c72656164792061206d616e75666163747572657200000000000000000000600082015250565b6000612cf66016836122b8565b9150612d0182612cc0565b602082019050919050565b60006020820190508181036000830152612d2581612ce9565b9050919050565b7f4e4654206e6f742076616c696400000000000000000000000000000000000000600082015250565b6000612d62600d836122b8565b9150612d6d82612d2c565b602082019050919050565b60006020820190508181036000830152612d9181612d55565b9050919050565b7f4f6e6c79204f776e65722063616e20706f737420746865697220636172000000600082015250565b6000612dce601d836122b8565b9150612dd982612d98565b602082019050919050565b60006020820190508181036000830152612dfd81612dc1565b9050919050565b7f43617220416c7265616479206f6e2053616c6500000000000000000000000000600082015250565b6000612e3a6013836122b8565b9150612e4582612e04565b602082019050919050565b60006020820190508181036000830152612e6981612e2d565b9050919050565b6000612e7b82612368565b9150612e8683612368565b9250817fffffffffffffffffffffffffffffffffffffffffffffffffffffffffffffffff0483118215151615612ebf57612ebe612a90565b5b828202905092915050565b6000612ed582612368565b9150612ee083612368565b9250827fffffffffffffffffffffffffffffffffffffffffffffffffffffffffffffffff03821115612f1557612f14612a90565b5b828201905092915050565b600081905092915050565b6000612f36826122ad565b612f408185612f20565b9350612f508185602086016122c9565b80840191505092915050565b6000612f688285612f2b565b9150612f748284612f2b565b91508190509392505050565b7f416c7265616479206f776e6572206f6620746869732063617200000000000000600082015250565b6000612fb66019836122b8565b9150612fc182612f80565b602082019050919050565b60006020820190508181036000830152612fe581612fa9565b9050919050565b7f496e7375666669636e65742066756e647320746f206275790000000000000000600082015250565b60006130226018836122b8565b915061302d82612fec565b602082019050919050565b6000602082019050818103600083015261305181613015565b9050919050565b7f436172206e6f74206f6e2073616c650000000000000000000000000000000000600082015250565b600061308e600f836122b8565b915061309982613058565b602082019050919050565b600060208201905081810360008301526130bd81613081565b9050919050565b6000819050919050565b60006130e96130e46130df846123cb565b6130c4565b6123cb565b9050919050565b60006130fb826130ce565b9050919050565b600061310d826130f0565b9050919050565b61311d81613102565b82525050565b60006060820190506131386000830186613114565b61314560208301856123fd565b6131526040830184612566565b949350505050565b7f4552433732313a206d696e7420746f20746865207a65726f2061646472657373600082015250565b60006131906020836122b8565b915061319b8261315a565b602082019050919050565b600060208201905081810360008301526131bf81613183565b9050919050565b7f4552433732313a20746f6b656e20616c7265616479206d696e74656400000000600082015250565b60006131fc601c836122b8565b9150613207826131c6565b602082019050919050565b6000602082019050818103600083015261322b816131ef565b9050919050565b7f4552433732313a207472616e736665722066726f6d20696e636f72726563742060008201527f6f776e6572000000000000000000000000000000000000000000000000000000602082015250565b600061328e6025836122b8565b915061329982613232565b604082019050919050565b600060208201905081810360008301526132bd81613281565b9050919050565b7f4552433732313a207472616e7366657220746f20746865207a65726f2061646460008201527f7265737300000000000000000000000000000000000000000000000000000000602082015250565b60006133206024836122b8565b915061332b826132c4565b604082019050919050565b6000602082019050818103600083015261334f81613313565b9050919050565b600061336182612368565b915061336c83612368565b92508282101561337f5761337e612a90565b5b828203905092915050565b7f4552433732313a20617070726f766520746f2063616c6c657200000000000000600082015250565b60006133c06019836122b8565b91506133cb8261338a565b602082019050919050565b600060208201905081810360008301526133ef816133b3565b9050919050565b7f4552433732313a207472616e7366657220746f206e6f6e20455243373231526560008201527f63656976657220696d706c656d656e7465720000000000000000000000000000602082015250565b60006134526032836122b8565b915061345d826133f6565b604082019050919050565b6000602082019050818103600083015261348181613445565b9050919050565b600081519050919050565b600082825260208201905092915050565b60006134af82613488565b6134b98185613493565b93506134c98185602086016122c9565b6134d2816122fc565b840191505092915050565b60006080820190506134f260008301876123fd565b6134ff60208301866123fd565b61350c6040830185612566565b818103606083015261351e81846134a4565b905095945050505050565b6000815190506135388161221e565b92915050565b600060208284031215613554576135536121e8565b5b600061356284828501613529565b91505092915050565b7f4e487b7100000000000000000000000000000000000000000000000000000000600052601260045260246000fd5b60006135a582612368565b91506135b083612368565b9250826135c0576135bf61356b565b5b828204905092915050565b60006135d682612368565b91506135e183612368565b9250826135f1576135f061356b565b5b828206905092915050565b7f4e487b7100000000000000000000000000000000000000000000000000000000600052603260045260246000fdfea264697066735822122061425a943878b1662e897d44a2afc47d4625c8416d8eb5c8bc82a3978c0a560664736f6c634300080f0033",
  "immutableReferences": {},
  "source": "pragma solidity ^0.8.15;\n\n \n\n/*\n\n    1. Seller can add cars as nfts\n    2. Buyers can buy cars\n    3. User(seller,buyer) can sell their owned cars to another user\n    4. Set minting cost of a car(based on it's features,aplly some maths) to ensure a seller cannnot mint unlimited cars\n    5. For point 4, transfer that ether to contract\n    6. Login system via react\n    7. Car owner can also choose not put a car on sale\n\n*/\n\nimport \"@openzeppelin/contracts/token/ERC721/extensions/ERC721URIStorage.sol\";\nimport \"@openzeppelin/contracts/utils/Counters.sol\";\n\n\n\ncontract CarTrade is ERC721URIStorage{\n\n\n\n    \n    struct Car{\n\n        uint id; //token id\n\n        //address payable owner;\n        bool onSale;\n\n        uint mileage;\n        uint engine;\n        uint fuel;\n\n\n        uint  price;\n\n        \n\n    }\n\n    \n    string private contractName ;\n    uint onewei = 1 wei;\n    uint depr_mileage;\n    uint depr_engine;\n    uint depr_fuel;\n    uint totalCars=0;\n    mapping(uint=> bool) nft;\n    mapping(uint => Car) cars;\n    mapping(address => bool) manufacturers;\n    \n\n    modifier onlyManufacturer {\n      require(manufacturers[msg.sender]==true,'Not a manufacturer');\n      _;\n   }\n\n   modifier validNFT(uint id){\n\n    require(nft[id]==true,'NFT not valid');\n    _;\n   }\n   \n    \n   event makeCarEvent(\n\n    address owner,\n    uint carId\n    );\n\n    event registerEvent(\n\n        address manufacturer\n    );\n\n    event buyEvent(\n\n        address from,\n        address to,\n        uint carId\n    );\n\n    event postCarEvent(\n\n        address owner,\n        uint carId\n    );\n\n\n   constructor(\n    string memory _name, \n    string memory _symbol,\n    uint _depr_mileage,\n    uint _depr_engine,\n    uint _depr_fuel\n    ) ERC721(_name,_symbol){\n\n        contractName = \" A Car Marketplace\";\n\n        depr_mileage=_depr_mileage;\n        depr_engine = _depr_engine;\n        depr_fuel = _depr_fuel;\n   }\n\n   function getName() public view returns(string memory) {\n\n        return contractName;\n\n   }\n\n \n\n\n\n    function get_price(uint mileage,\n    uint engine,\n    uint fuel\n    ) public view returns(uint){\n\n        uint price =  mileage + engine + fuel;\n\n        return price*onewei;\n\n\n    }\n\n\n    function depreciate_car(uint id) validNFT(id) private   {\n\n        \n        Car storage  c = cars[id];\n\n        c.mileage -= depr_mileage;\n        c.engine -= depr_engine;\n        c.fuel -= depr_fuel;\n\n        if(c.mileage <=0 || c.engine <=0 || c.fuel <=0){\n\n            \n\n            nft[id]=false;\n\n            \n\n        }\n\n        \n\n    }\n\n    function register_as_manufacturer() public{\n\n        require(manufacturers[msg.sender]==false,'Already a manufacturer');\n\n       manufacturers[msg.sender]=true;\n\n        \n\n        emit registerEvent(msg.sender);\n\n    }\n                                                                                        \n   \n    \n    function makeCar(uint mileage,uint engine,uint fuel)  payable onlyManufacturer\n        public\n        \n    {   \n       \n        \n        uint price = get_price(mileage,engine,fuel);\n\n\n        require(msg.value == price,'Insufficent Funds ');\n        require(mileage>0);\n        require(engine>0);\n        require(engine>0);\n\n         Car memory c = Car(++totalCars\n         ,false\n         ,mileage\n         ,engine\n         ,fuel\n         ,price\n         );\n\n        \n        cars[totalCars]=c;\n        _mint(msg.sender, totalCars);\n        nft[totalCars]=true;\n\n        emit makeCarEvent(ownerOf(totalCars),c.id);\n         \n        \n        \n    }\n\n   \n    function buy(uint id) validNFT(id) payable public{\n\n        \n        Car storage c = cars[id];\n\n        \n\n        require(msg.sender!=ownerOf(id),'Already owner of this car');\n\n        require(msg.value ==c.price,'Insufficnet funds to buy');\n\n        require(c.onSale==true,'Car not on sale');\n\n        address payable prev_owner = payable(ownerOf(id));\n\n        prev_owner.transfer(msg.value); //money sent\n\n        \n\n        //transfer nft\n\n        _transfer(prev_owner,msg.sender,c.id);\n\n        \n\n        c.onSale = false;\n\n        \n\n        depreciate_car(c.id);\n\n        \n        if(nft[id]==true)\n        c.price = get_price(c.mileage,c.engine,c.fuel);\n\n        emit buyEvent(prev_owner,msg.sender,c.id);\n\n\n    }\n\n    function postCar(uint id,uint price) validNFT(id)  public {\n\n        \n        Car storage c = cars[id];\n\n        require(msg.sender == ownerOf(id),'Only Owner can post their car');\n        require(c.onSale==false,'Car Already on Sale');\n      \n        c.onSale = true;\n        c.price  = price*onewei;\n    \n\n        emit postCarEvent(msg.sender,c.id);\n\n    }\n\n    \n\n}",
  "sourcePath": "/home/alabhinav/Documents/solidity/CarTrade/src/contracts/CarTrade.sol",
  "compiler": {
    "name": "solc",
    "version": "0.8.15+commit.e14f2714.Emscripten.clang"
  },
  "schemaVersion": "3.4.8",
  "updatedAt": "2022-07-12T22:33:34.894Z",
  "networkType": "ethereum",
  "devdoc": {
    "kind": "dev",
    "methods": {
      "approve(address,uint256)": {
        "details": "See {IERC721-approve}."
      },
      "balanceOf(address)": {
        "details": "See {IERC721-balanceOf}."
      },
      "getApproved(uint256)": {
        "details": "See {IERC721-getApproved}."
      },
      "isApprovedForAll(address,address)": {
        "details": "See {IERC721-isApprovedForAll}."
      },
      "name()": {
        "details": "See {IERC721Metadata-name}."
      },
      "ownerOf(uint256)": {
        "details": "See {IERC721-ownerOf}."
      },
      "safeTransferFrom(address,address,uint256)": {
        "details": "See {IERC721-safeTransferFrom}."
      },
      "safeTransferFrom(address,address,uint256,bytes)": {
        "details": "See {IERC721-safeTransferFrom}."
      },
      "setApprovalForAll(address,bool)": {
        "details": "See {IERC721-setApprovalForAll}."
      },
      "supportsInterface(bytes4)": {
        "details": "See {IERC165-supportsInterface}."
      },
      "symbol()": {
        "details": "See {IERC721Metadata-symbol}."
      },
      "tokenURI(uint256)": {
        "details": "See {IERC721Metadata-tokenURI}."
      },
      "transferFrom(address,address,uint256)": {
        "details": "See {IERC721-transferFrom}."
      }
    },
    "version": 1
  },
  "userdoc": {
    "kind": "user",
    "methods": {},
    "version": 1
  }
}